{
  "contractName": "CreateListing",
  "abi": [
    {
      "constant": true,
      "inputs": [
        {
          "internalType": "uint256",
          "name": "",
          "type": "uint256"
        }
      ],
      "name": "agreementIndexes",
      "outputs": [
        {
          "internalType": "uint256",
          "name": "",
          "type": "uint256"
        }
      ],
      "payable": false,
      "stateMutability": "view",
      "type": "function"
    },
    {
      "constant": true,
      "inputs": [
        {
          "internalType": "uint256",
          "name": "",
          "type": "uint256"
        }
      ],
      "name": "agreements",
      "outputs": [
        {
          "internalType": "uint256",
          "name": "id",
          "type": "uint256"
        },
        {
          "internalType": "string",
          "name": "landlord",
          "type": "string"
        },
        {
          "internalType": "string",
          "name": "tenant",
          "type": "string"
        },
        {
          "internalType": "string",
          "name": "title",
          "type": "string"
        },
        {
          "internalType": "string",
          "name": "addr",
          "type": "string"
        },
        {
          "internalType": "string",
          "name": "start",
          "type": "string"
        },
        {
          "internalType": "string",
          "name": "end",
          "type": "string"
        },
        {
          "internalType": "uint256",
          "name": "rent",
          "type": "uint256"
        },
        {
          "internalType": "string",
          "name": "todayDate",
          "type": "string"
        }
      ],
      "payable": false,
      "stateMutability": "view",
      "type": "function"
    },
    {
      "constant": true,
      "inputs": [
        {
          "internalType": "uint256",
          "name": "",
          "type": "uint256"
        }
      ],
      "name": "listingIndexes",
      "outputs": [
        {
          "internalType": "uint256",
          "name": "",
          "type": "uint256"
        }
      ],
      "payable": false,
      "stateMutability": "view",
      "type": "function"
    },
    {
      "constant": true,
      "inputs": [
        {
          "internalType": "uint256",
          "name": "",
          "type": "uint256"
        }
      ],
      "name": "listings",
      "outputs": [
        {
          "internalType": "uint256",
          "name": "id",
          "type": "uint256"
        },
        {
          "internalType": "string",
          "name": "name",
          "type": "string"
        },
        {
          "internalType": "string",
          "name": "addr",
          "type": "string"
        },
        {
          "internalType": "uint256",
          "name": "price",
          "type": "uint256"
        },
        {
          "internalType": "string",
          "name": "description",
          "type": "string"
        },
        {
          "internalType": "uint256",
          "name": "numBed",
          "type": "uint256"
        },
        {
          "internalType": "uint256",
          "name": "numBath",
          "type": "uint256"
        },
        {
          "internalType": "string",
          "name": "landlordName",
          "type": "string"
        },
        {
          "internalType": "string",
          "name": "landlordEmail",
          "type": "string"
        },
        {
          "internalType": "string",
          "name": "landlordPhone",
          "type": "string"
        },
        {
          "internalType": "string",
          "name": "landlordBio",
          "type": "string"
        },
        {
          "internalType": "string",
          "name": "pic",
          "type": "string"
        }
      ],
      "payable": false,
      "stateMutability": "view",
      "type": "function"
    },
    {
      "constant": false,
      "inputs": [
        {
          "internalType": "string",
          "name": "name_form",
          "type": "string"
        },
        {
          "internalType": "string",
          "name": "address_form",
          "type": "string"
        },
        {
          "internalType": "uint256",
          "name": "price_form",
          "type": "uint256"
        },
        {
          "internalType": "string",
          "name": "description_form",
          "type": "string"
        },
        {
          "internalType": "uint256",
          "name": "numBed_form",
          "type": "uint256"
        },
        {
          "internalType": "uint256",
          "name": "numBath_form",
          "type": "uint256"
        },
        {
          "internalType": "string",
          "name": "fullName",
          "type": "string"
        },
        {
          "internalType": "string",
          "name": "email",
          "type": "string"
        },
        {
          "internalType": "string",
          "name": "phone",
          "type": "string"
        },
        {
          "internalType": "string",
          "name": "bio",
          "type": "string"
        },
        {
          "internalType": "string",
          "name": "pic_form",
          "type": "string"
        }
      ],
      "name": "addListing",
      "outputs": [],
      "payable": false,
      "stateMutability": "nonpayable",
      "type": "function"
    },
    {
      "constant": false,
      "inputs": [
        {
          "internalType": "string",
          "name": "tenant_form",
          "type": "string"
        },
        {
          "internalType": "string",
          "name": "landlord_form",
          "type": "string"
        },
        {
          "internalType": "string",
          "name": "title_form",
          "type": "string"
        },
        {
          "internalType": "string",
          "name": "address_form",
          "type": "string"
        },
        {
          "internalType": "string",
          "name": "start_form",
          "type": "string"
        },
        {
          "internalType": "string",
          "name": "end_form",
          "type": "string"
        },
        {
          "internalType": "uint256",
          "name": "rent_form",
          "type": "uint256"
        },
        {
          "internalType": "string",
          "name": "date_form",
          "type": "string"
        }
      ],
      "name": "addAgreement",
      "outputs": [],
      "payable": false,
      "stateMutability": "nonpayable",
      "type": "function"
    },
    {
      "constant": false,
      "inputs": [],
      "name": "getAgreementIndexes",
      "outputs": [
        {
          "internalType": "uint256[]",
          "name": "",
          "type": "uint256[]"
        }
      ],
      "payable": false,
      "stateMutability": "nonpayable",
      "type": "function"
    },
    {
      "constant": false,
      "inputs": [],
      "name": "getListingIndexes",
      "outputs": [
        {
          "internalType": "uint256[]",
          "name": "",
          "type": "uint256[]"
        }
      ],
      "payable": false,
      "stateMutability": "nonpayable",
      "type": "function"
    },
    {
      "constant": false,
      "inputs": [
        {
          "internalType": "uint256",
          "name": "index",
          "type": "uint256"
        }
      ],
      "name": "getAgreement",
      "outputs": [
        {
          "internalType": "string",
          "name": "",
          "type": "string"
        },
        {
          "internalType": "string",
          "name": "",
          "type": "string"
        },
        {
          "internalType": "string",
          "name": "",
          "type": "string"
        },
        {
          "internalType": "string",
          "name": "",
          "type": "string"
        },
        {
          "internalType": "string",
          "name": "",
          "type": "string"
        },
        {
          "internalType": "string",
          "name": "",
          "type": "string"
        },
        {
          "internalType": "uint256",
          "name": "",
          "type": "uint256"
        },
        {
          "internalType": "string",
          "name": "",
          "type": "string"
        }
      ],
      "payable": false,
      "stateMutability": "nonpayable",
      "type": "function"
    },
    {
      "constant": false,
      "inputs": [
        {
          "internalType": "uint256",
          "name": "index",
          "type": "uint256"
        }
      ],
      "name": "getListing",
      "outputs": [
        {
          "internalType": "string",
          "name": "",
          "type": "string"
        },
        {
          "internalType": "string",
          "name": "",
          "type": "string"
        },
        {
          "internalType": "uint256",
          "name": "",
          "type": "uint256"
        },
        {
          "internalType": "string",
          "name": "",
          "type": "string"
        },
        {
          "internalType": "uint256",
          "name": "",
          "type": "uint256"
        },
        {
          "internalType": "uint256",
          "name": "",
          "type": "uint256"
        },
        {
          "internalType": "uint256",
          "name": "",
          "type": "uint256"
        },
        {
          "internalType": "string",
          "name": "",
          "type": "string"
        },
        {
          "internalType": "string",
          "name": "",
          "type": "string"
        },
        {
          "internalType": "string",
          "name": "",
          "type": "string"
        },
        {
          "internalType": "string",
          "name": "",
          "type": "string"
        },
        {
          "internalType": "string",
          "name": "",
          "type": "string"
        }
      ],
      "payable": false,
      "stateMutability": "nonpayable",
      "type": "function"
    }
  ],
  "bytecode": "0x608060405234801561001057600080fd5b50612692806100206000396000f3fe608060405234801561001057600080fd5b506004361061009e5760003560e01c8063a82ee27911610066578063a82ee2791461017d578063b1d5c99e146101ad578063bd14de96146101cb578063de74e57b14610203578063e30a83da1461023e5761009e565b8063107a274a146100a35780631708e748146100de57806345a541ea146100fa5780634f9f6fe61461011657806363a4c8861461014d575b600080fd5b6100bd60048036036100b89190810190612065565b61025c565b6040516100d59c9b9a99989796959493929190612265565b60405180910390f35b6100f860048036036100f39190810190611eb5565b610850565b005b610114600480360361010f9190810190611d5b565b610a57565b005b610130600480360361012b9190810190612065565b610c06565b6040516101449897969594939291906121b6565b60405180910390f35b61016760048036036101629190810190612065565b611118565b6040516101749190612357565b60405180910390f35b61019760048036036101929190810190612065565b611139565b6040516101a49190612357565b60405180910390f35b6101b561115a565b6040516101c29190612194565b60405180910390f35b6101e560048036036101e09190810190612065565b6111b2565b6040516101fa99989796959493929190612372565b60405180910390f35b61021d60048036036102189190810190612065565b611628565b6040516102359c9b9a99989796959493929190612430565b60405180910390f35b610246611b48565b6040516102539190612194565b60405180910390f35b6060806000606060008060006060806060806060610278611ba0565b6000808f81526020019081526020016000206040518061018001604052908160008201548152602001600182018054600181600116156101000203166002900480601f0160208091040260200160405190810160405280929190818152602001828054600181600116156101000203166002900480156103395780601f1061030e57610100808354040283529160200191610339565b820191906000526020600020905b81548152906001019060200180831161031c57829003601f168201915b50505050508152602001600282018054600181600116156101000203166002900480601f0160208091040260200160405190810160405280929190818152602001828054600181600116156101000203166002900480156103db5780601f106103b0576101008083540402835291602001916103db565b820191906000526020600020905b8154815290600101906020018083116103be57829003601f168201915b5050505050815260200160038201548152602001600482018054600181600116156101000203166002900480601f0160208091040260200160405190810160405280929190818152602001828054600181600116156101000203166002900480156104875780601f1061045c57610100808354040283529160200191610487565b820191906000526020600020905b81548152906001019060200180831161046a57829003601f168201915b505050505081526020016005820154815260200160068201548152602001600782018054600181600116156101000203166002900480601f01602080910402602001604051908101604052809291908181526020018280546001816001161561010002031660029004801561053d5780601f106105125761010080835404028352916020019161053d565b820191906000526020600020905b81548152906001019060200180831161052057829003601f168201915b50505050508152602001600882018054600181600116156101000203166002900480601f0160208091040260200160405190810160405280929190818152602001828054600181600116156101000203166002900480156105df5780601f106105b4576101008083540402835291602001916105df565b820191906000526020600020905b8154815290600101906020018083116105c257829003601f168201915b50505050508152602001600982018054600181600116156101000203166002900480601f0160208091040260200160405190810160405280929190818152602001828054600181600116156101000203166002900480156106815780601f1061065657610100808354040283529160200191610681565b820191906000526020600020905b81548152906001019060200180831161066457829003601f168201915b50505050508152602001600a82018054600181600116156101000203166002900480601f0160208091040260200160405190810160405280929190818152602001828054600181600116156101000203166002900480156107235780601f106106f857610100808354040283529160200191610723565b820191906000526020600020905b81548152906001019060200180831161070657829003601f168201915b50505050508152602001600b82018054600181600116156101000203166002900480601f0160208091040260200160405190810160405280929190818152602001828054600181600116156101000203166002900480156107c55780601f1061079a576101008083540402835291602001916107c5565b820191906000526020600020905b8154815290600101906020018083116107a857829003601f168201915b505050505081525050905080602001518160400151826060015183608001518460a001518560c0015186600001518760e001518861010001518961012001518a61014001518b61016001518b9b508a9a508898508494508393508292508191508090509c509c509c509c509c509c509c509c509c509c509c509c505091939597999b5091939597999b565b60006005600081548092919060010191905055905080600080838152602001908152602001600020600001819055508b60008083815260200190815260200160002060010190805190602001906108a8929190611c01565b508a60008083815260200190815260200160002060020190805190602001906108d2929190611c01565b508960008083815260200190815260200160002060030181905550886000808381526020019081526020016000206004019080519060200190610916929190611c01565b5087600080838152602001908152602001600020600501819055508660008083815260200190815260200160002060060181905550856000808381526020019081526020016000206007019080519060200190610974929190611c01565b5084600080838152602001908152602001600020600801908051906020019061099e929190611c01565b508360008083815260200190815260200160002060090190805190602001906109c8929190611c01565b5082600080838152602001908152602001600020600a0190805190602001906109f2929190611c01565b5081600080838152602001908152602001600020600b019080519060200190610a1c929190611c01565b506002819080600181540180825580915050906001820390600052602060002001600090919290919091505550505050505050505050505050565b60006004600081548092919060010191905055905080600160008381526020019081526020016000206000018190555087600160008381526020019081526020016000206001019080519060200190610ab1929190611c01565b5088600160008381526020019081526020016000206002019080519060200190610adc929190611c01565b5086600160008381526020019081526020016000206003019080519060200190610b07929190611c01565b5085600160008381526020019081526020016000206004019080519060200190610b32929190611c01565b5084600160008381526020019081526020016000206005019080519060200190610b5d929190611c01565b5083600160008381526020019081526020016000206006019080519060200190610b88929190611c01565b5082600160008381526020019081526020016000206007018190555081600160008381526020019081526020016000206008019080519060200190610bce929190611c01565b506003819080600181540180825580915050906001820390600052602060002001600090919290919091505550505050505050505050565b60608060608060608060006060610c1b611c81565b600160008b81526020019081526020016000206040518061012001604052908160008201548152602001600182018054600181600116156101000203166002900480601f016020809104026020016040519081016040528092919081815260200182805460018160011615610100020316600290048015610cdd5780601f10610cb257610100808354040283529160200191610cdd565b820191906000526020600020905b815481529060010190602001808311610cc057829003601f168201915b50505050508152602001600282018054600181600116156101000203166002900480601f016020809104026020016040519081016040528092919081815260200182805460018160011615610100020316600290048015610d7f5780601f10610d5457610100808354040283529160200191610d7f565b820191906000526020600020905b815481529060010190602001808311610d6257829003601f168201915b50505050508152602001600382018054600181600116156101000203166002900480601f016020809104026020016040519081016040528092919081815260200182805460018160011615610100020316600290048015610e215780601f10610df657610100808354040283529160200191610e21565b820191906000526020600020905b815481529060010190602001808311610e0457829003601f168201915b50505050508152602001600482018054600181600116156101000203166002900480601f016020809104026020016040519081016040528092919081815260200182805460018160011615610100020316600290048015610ec35780601f10610e9857610100808354040283529160200191610ec3565b820191906000526020600020905b815481529060010190602001808311610ea657829003601f168201915b50505050508152602001600582018054600181600116156101000203166002900480601f016020809104026020016040519081016040528092919081815260200182805460018160011615610100020316600290048015610f655780601f10610f3a57610100808354040283529160200191610f65565b820191906000526020600020905b815481529060010190602001808311610f4857829003601f168201915b50505050508152602001600682018054600181600116156101000203166002900480601f0160208091040260200160405190810160405280929190818152602001828054600181600116156101000203166002900480156110075780601f10610fdc57610100808354040283529160200191611007565b820191906000526020600020905b815481529060010190602001808311610fea57829003601f168201915b5050505050815260200160078201548152602001600882018054600181600116156101000203166002900480601f0160208091040260200160405190810160405280929190818152602001828054600181600116156101000203166002900480156110b35780601f10611088576101008083540402835291602001916110b3565b820191906000526020600020905b81548152906001019060200180831161109657829003601f168201915b505050505081525050905080602001518160400151826060015183608001518460a001518560c001518660e001518761010001518797508696508595508494508393508292508090509850985098509850985098509850985050919395975091939597565b6002818154811061112557fe5b906000526020600020016000915090505481565b6003818154811061114657fe5b906000526020600020016000915090505481565b606060028054806020026020016040519081016040528092919081815260200182805480156111a857602002820191906000526020600020905b815481526020019060010190808311611194575b5050505050905090565b6001602052806000526040600020600091509050806000015490806001018054600181600116156101000203166002900480601f0160208091040260200160405190810160405280929190818152602001828054600181600116156101000203166002900480156112645780601f1061123957610100808354040283529160200191611264565b820191906000526020600020905b81548152906001019060200180831161124757829003601f168201915b505050505090806002018054600181600116156101000203166002900480601f0160208091040260200160405190810160405280929190818152602001828054600181600116156101000203166002900480156113025780601f106112d757610100808354040283529160200191611302565b820191906000526020600020905b8154815290600101906020018083116112e557829003601f168201915b505050505090806003018054600181600116156101000203166002900480601f0160208091040260200160405190810160405280929190818152602001828054600181600116156101000203166002900480156113a05780601f10611375576101008083540402835291602001916113a0565b820191906000526020600020905b81548152906001019060200180831161138357829003601f168201915b505050505090806004018054600181600116156101000203166002900480601f01602080910402602001604051908101604052809291908181526020018280546001816001161561010002031660029004801561143e5780601f106114135761010080835404028352916020019161143e565b820191906000526020600020905b81548152906001019060200180831161142157829003601f168201915b505050505090806005018054600181600116156101000203166002900480601f0160208091040260200160405190810160405280929190818152602001828054600181600116156101000203166002900480156114dc5780601f106114b1576101008083540402835291602001916114dc565b820191906000526020600020905b8154815290600101906020018083116114bf57829003601f168201915b505050505090806006018054600181600116156101000203166002900480601f01602080910402602001604051908101604052809291908181526020018280546001816001161561010002031660029004801561157a5780601f1061154f5761010080835404028352916020019161157a565b820191906000526020600020905b81548152906001019060200180831161155d57829003601f168201915b505050505090806007015490806008018054600181600116156101000203166002900480601f01602080910402602001604051908101604052809291908181526020018280546001816001161561010002031660029004801561161e5780601f106115f35761010080835404028352916020019161161e565b820191906000526020600020905b81548152906001019060200180831161160157829003601f168201915b5050505050905089565b6000602052806000526040600020600091509050806000015490806001018054600181600116156101000203166002900480601f0160208091040260200160405190810160405280929190818152602001828054600181600116156101000203166002900480156116da5780601f106116af576101008083540402835291602001916116da565b820191906000526020600020905b8154815290600101906020018083116116bd57829003601f168201915b505050505090806002018054600181600116156101000203166002900480601f0160208091040260200160405190810160405280929190818152602001828054600181600116156101000203166002900480156117785780601f1061174d57610100808354040283529160200191611778565b820191906000526020600020905b81548152906001019060200180831161175b57829003601f168201915b505050505090806003015490806004018054600181600116156101000203166002900480601f01602080910402602001604051908101604052809291908181526020018280546001816001161561010002031660029004801561181c5780601f106117f15761010080835404028352916020019161181c565b820191906000526020600020905b8154815290600101906020018083116117ff57829003601f168201915b505050505090806005015490806006015490806007018054600181600116156101000203166002900480601f0160208091040260200160405190810160405280929190818152602001828054600181600116156101000203166002900480156118c65780601f1061189b576101008083540402835291602001916118c6565b820191906000526020600020905b8154815290600101906020018083116118a957829003601f168201915b505050505090806008018054600181600116156101000203166002900480601f0160208091040260200160405190810160405280929190818152602001828054600181600116156101000203166002900480156119645780601f1061193957610100808354040283529160200191611964565b820191906000526020600020905b81548152906001019060200180831161194757829003601f168201915b505050505090806009018054600181600116156101000203166002900480601f016020809104026020016040519081016040528092919081815260200182805460018160011615610100020316600290048015611a025780601f106119d757610100808354040283529160200191611a02565b820191906000526020600020905b8154815290600101906020018083116119e557829003601f168201915b50505050509080600a018054600181600116156101000203166002900480601f016020809104026020016040519081016040528092919081815260200182805460018160011615610100020316600290048015611aa05780601f10611a7557610100808354040283529160200191611aa0565b820191906000526020600020905b815481529060010190602001808311611a8357829003601f168201915b50505050509080600b018054600181600116156101000203166002900480601f016020809104026020016040519081016040528092919081815260200182805460018160011615610100020316600290048015611b3e5780601f10611b1357610100808354040283529160200191611b3e565b820191906000526020600020905b815481529060010190602001808311611b2157829003601f168201915b505050505090508c565b60606003805480602002602001604051908101604052809291908181526020018280548015611b9657602002820191906000526020600020905b815481526020019060010190808311611b82575b5050505050905090565b6040518061018001604052806000815260200160608152602001606081526020016000815260200160608152602001600081526020016000815260200160608152602001606081526020016060815260200160608152602001606081525090565b828054600181600116156101000203166002900490600052602060002090601f016020900481019282601f10611c4257805160ff1916838001178555611c70565b82800160010185558215611c70579182015b82811115611c6f578251825591602001919060010190611c54565b5b509050611c7d9190611ccd565b5090565b6040518061012001604052806000815260200160608152602001606081526020016060815260200160608152602001606081526020016060815260200160008152602001606081525090565b611cef91905b80821115611ceb576000816000905550600101611cd3565b5090565b90565b600082601f830112611d0357600080fd5b8135611d16611d118261254f565b612522565b91508082526020830160208301858383011115611d3257600080fd5b611d3d8382846125e5565b50505092915050565b600081359050611d5581612638565b92915050565b600080600080600080600080610100898b031215611d7857600080fd5b600089013567ffffffffffffffff811115611d9257600080fd5b611d9e8b828c01611cf2565b985050602089013567ffffffffffffffff811115611dbb57600080fd5b611dc78b828c01611cf2565b975050604089013567ffffffffffffffff811115611de457600080fd5b611df08b828c01611cf2565b965050606089013567ffffffffffffffff811115611e0d57600080fd5b611e198b828c01611cf2565b955050608089013567ffffffffffffffff811115611e3657600080fd5b611e428b828c01611cf2565b94505060a089013567ffffffffffffffff811115611e5f57600080fd5b611e6b8b828c01611cf2565b93505060c0611e7c8b828c01611d46565b92505060e089013567ffffffffffffffff811115611e9957600080fd5b611ea58b828c01611cf2565b9150509295985092959890939650565b60008060008060008060008060008060006101608c8e031215611ed757600080fd5b60008c013567ffffffffffffffff811115611ef157600080fd5b611efd8e828f01611cf2565b9b505060208c013567ffffffffffffffff811115611f1a57600080fd5b611f268e828f01611cf2565b9a50506040611f378e828f01611d46565b99505060608c013567ffffffffffffffff811115611f5457600080fd5b611f608e828f01611cf2565b9850506080611f718e828f01611d46565b97505060a0611f828e828f01611d46565b96505060c08c013567ffffffffffffffff811115611f9f57600080fd5b611fab8e828f01611cf2565b95505060e08c013567ffffffffffffffff811115611fc857600080fd5b611fd48e828f01611cf2565b9450506101008c013567ffffffffffffffff811115611ff257600080fd5b611ffe8e828f01611cf2565b9350506101208c013567ffffffffffffffff81111561201c57600080fd5b6120288e828f01611cf2565b9250506101408c013567ffffffffffffffff81111561204657600080fd5b6120528e828f01611cf2565b9150509295989b509295989b9093969950565b60006020828403121561207757600080fd5b600061208584828501611d46565b91505092915050565b600061209a8383612176565b60208301905092915050565b60006120b18261258b565b6120bb81856125b9565b93506120c68361257b565b8060005b838110156120f75781516120de888261208e565b97506120e9836125ac565b9250506001810190506120ca565b5085935050505092915050565b600061210f826125a1565b61211981856125ca565b93506121298185602086016125f4565b61213281612627565b840191505092915050565b600061214882612596565b61215281856125ca565b93506121628185602086016125f4565b61216b81612627565b840191505092915050565b61217f816125db565b82525050565b61218e816125db565b82525050565b600060208201905081810360008301526121ae81846120a6565b905092915050565b60006101008201905081810360008301526121d1818b612104565b905081810360208301526121e5818a612104565b905081810360408301526121f98189612104565b9050818103606083015261220d8188612104565b905081810360808301526122218187612104565b905081810360a08301526122358186612104565b905061224460c0830185612185565b81810360e08301526122568184612104565b90509998505050505050505050565b6000610180820190508181036000830152612280818f612104565b90508181036020830152612294818e612104565b90506122a3604083018d612185565b81810360608301526122b5818c612104565b90506122c4608083018b612185565b6122d160a083018a612185565b6122de60c0830189612185565b81810360e08301526122f08188612104565b90508181036101008301526123058187612104565b905081810361012083015261231a8186612104565b905081810361014083015261232f8185612104565b90508181036101608301526123448184612104565b90509d9c50505050505050505050505050565b600060208201905061236c6000830184612185565b92915050565b600061012082019050612388600083018c612185565b818103602083015261239a818b61213d565b905081810360408301526123ae818a61213d565b905081810360608301526123c2818961213d565b905081810360808301526123d6818861213d565b905081810360a08301526123ea818761213d565b905081810360c08301526123fe818661213d565b905061240d60e0830185612185565b818103610100830152612420818461213d565b90509a9950505050505050505050565b600061018082019050612446600083018f612185565b8181036020830152612458818e61213d565b9050818103604083015261246c818d61213d565b905061247b606083018c612185565b818103608083015261248d818b61213d565b905061249c60a083018a612185565b6124a960c0830189612185565b81810360e08301526124bb818861213d565b90508181036101008301526124d0818761213d565b90508181036101208301526124e5818661213d565b90508181036101408301526124fa818561213d565b905081810361016083015261250f818461213d565b90509d9c50505050505050505050505050565b6000604051905081810181811067ffffffffffffffff8211171561254557600080fd5b8060405250919050565b600067ffffffffffffffff82111561256657600080fd5b601f19601f8301169050602081019050919050565b6000819050602082019050919050565b600081519050919050565b600081519050919050565b600081519050919050565b6000602082019050919050565b600082825260208201905092915050565b600082825260208201905092915050565b6000819050919050565b82818337600083830152505050565b60005b838110156126125780820151818401526020810190506125f7565b83811115612621576000848401525b50505050565b6000601f19601f8301169050919050565b612641816125db565b811461264c57600080fd5b5056fea365627a7a7231582098fb1c08df32b0e5668b42745eb578b6e515541e2741f06f62e254f56f036d886c6578706572696d656e74616cf564736f6c63430005100040",
  "source": "pragma solidity ^0.5.0;\npragma experimental ABIEncoderV2;\n\ncontract CreateListing {\n\n  \n\tstruct Listing {\n        uint id; \n\t    string name;\n        string addr;\n        uint price;\n        string description;\n        uint numBed;\n        uint numBath;\n        string landlordName;\n        string landlordEmail;\n        string landlordPhone;\n        string landlordBio;\n        string pic;\n        \n\t}\n\n    struct Agreement {\n        uint id;\n        string landlord;\n        string tenant;\n        string title;\n        string addr;\n        string start;\n        string end;\n        uint rent;\n        string todayDate;\n    }\n\n\n\tmapping(uint => Listing) public listings;\t\n    mapping(uint => Agreement) public agreements;\n\t\n    uint[] public listingIndexes;\n    uint[] public agreementIndexes;\n    uint agreementCounter;\n\tuint listingCounter;\n\t\n    function addListing(string memory name_form, string memory address_form, uint price_form,  string memory description_form, uint numBed_form, uint numBath_form, string memory fullName, string  memory email, string memory phone, string memory bio, string memory pic_form) public {\n        uint listingId = listingCounter++;\n        listings[listingId].id = listingId;\n        listings[listingId].name = name_form;\n        listings[listingId].addr = address_form;\n        listings[listingId].price = price_form;\n\n        listings[listingId].description = description_form;\n        listings[listingId].numBed = numBed_form;\n        listings[listingId].numBath = numBath_form;\n        listings[listingId].landlordName = fullName;\n        listings[listingId].landlordEmail = email;\n       listings[listingId].landlordPhone = phone;\n       listings[listingId].landlordBio = bio;\n       listings[listingId].pic = pic_form;\n\n       listingIndexes.push(listingId);\n        \n    }\n\n    function addAgreement(string memory tenant_form, string memory landlord_form, string memory title_form, string memory address_form, string memory start_form, string memory end_form, uint rent_form, string memory date_form) public {\n        uint agreementId = agreementCounter++;\n\n        agreements[agreementId].id = agreementId;\n        agreements[agreementId].landlord = landlord_form;\n        agreements[agreementId].tenant = tenant_form;\n        agreements[agreementId].title  = title_form;\n        agreements[agreementId].addr = address_form;\n        agreements[agreementId].start = start_form;\n        agreements[agreementId].end = end_form;\n        agreements[agreementId].rent = rent_form;\n        agreements[agreementId].todayDate = date_form;\n\n        agreementIndexes.push(agreementId);\n    }\n\n   function getAgreementIndexes() public returns (uint[] memory) {\n       return agreementIndexes;\n   }\n\t\n\tfunction getListingIndexes() public returns (uint[] memory) {\n\t\treturn listingIndexes;\n\t}\n\t\n    function getAgreement(uint index) public returns (string memory, string memory, string memory, string memory, string memory, string memory, uint, string memory) {\n        Agreement memory agree = agreements[index];\n\n        return (agree.landlord, agree.tenant, agree.title, agree.addr, agree.start, agree.end, agree.rent, agree.todayDate);\n    }\n\n\tfunction getListing(uint index) public returns (string memory, string memory, uint, string memory, uint, uint, uint, string memory, string memory, string memory, string memory, string memory) {\n \t\tListing memory house = listings[index];\t\t\n\t\n\t\treturn (house.name, house.addr,  house.price,house.description, house.numBed, house.numBath, house.id, house.landlordName, house.landlordEmail, house.landlordPhone, house.landlordBio, house.pic);\n\t}\n\n\n\t\n}\t\n",
  "sourcePath": "/Users/emmakenny/FYP-blockchain/blockchain-ek/contracts/CreateListing.sol",
  "compiler": {
    "name": "solc",
    "version": "0.5.16+commit.9c3226ce.Emscripten.clang"
  },
  "schemaVersion": "3.0.23",
  "updatedAt": "2020-03-02T17:22:36.496Z",
  "networkType": "ethereum",
  "devdoc": {
    "methods": {}
  },
  "userdoc": {
    "methods": {}
  }
}