{
  "contractName": "CreateListing",
  "abi": [
    {
      "constant": true,
      "inputs": [
        {
          "internalType": "uint256",
          "name": "",
          "type": "uint256"
        }
      ],
      "name": "listingIndexes",
      "outputs": [
        {
          "internalType": "uint256",
          "name": "",
          "type": "uint256"
        }
      ],
      "payable": false,
      "stateMutability": "view",
      "type": "function"
    },
    {
      "constant": true,
      "inputs": [
        {
          "internalType": "uint256",
          "name": "",
          "type": "uint256"
        }
      ],
      "name": "listings",
      "outputs": [
        {
          "internalType": "uint256",
          "name": "id",
          "type": "uint256"
        },
        {
          "internalType": "string",
          "name": "name",
          "type": "string"
        },
        {
          "internalType": "string",
          "name": "addr",
          "type": "string"
        },
        {
          "internalType": "uint256",
          "name": "price",
          "type": "uint256"
        },
        {
          "internalType": "string",
          "name": "description",
          "type": "string"
        },
        {
          "internalType": "uint256",
          "name": "numBed",
          "type": "uint256"
        },
        {
          "internalType": "uint256",
          "name": "numBath",
          "type": "uint256"
        },
        {
          "internalType": "string",
          "name": "landlordName",
          "type": "string"
        },
        {
          "internalType": "string",
          "name": "landlordEmail",
          "type": "string"
        },
        {
          "internalType": "string",
          "name": "landlordPhone",
          "type": "string"
        },
        {
          "internalType": "string",
          "name": "landlordBio",
          "type": "string"
        }
      ],
      "payable": false,
      "stateMutability": "view",
      "type": "function"
    },
    {
      "constant": false,
      "inputs": [
        {
          "internalType": "string",
          "name": "name_form",
          "type": "string"
        },
        {
          "internalType": "string",
          "name": "address_form",
          "type": "string"
        },
        {
          "internalType": "uint256",
          "name": "price_form",
          "type": "uint256"
        },
        {
          "internalType": "string",
          "name": "description_form",
          "type": "string"
        },
        {
          "internalType": "uint256",
          "name": "numBed_form",
          "type": "uint256"
        },
        {
          "internalType": "uint256",
          "name": "numBath_form",
          "type": "uint256"
        },
        {
          "internalType": "string",
          "name": "fullName",
          "type": "string"
        },
        {
          "internalType": "string",
          "name": "email",
          "type": "string"
        },
        {
          "internalType": "string",
          "name": "phone",
          "type": "string"
        },
        {
          "internalType": "string",
          "name": "bio",
          "type": "string"
        }
      ],
      "name": "addListing",
      "outputs": [],
      "payable": false,
      "stateMutability": "nonpayable",
      "type": "function"
    },
    {
      "constant": false,
      "inputs": [],
      "name": "getListingIndexes",
      "outputs": [
        {
          "internalType": "uint256[]",
          "name": "",
          "type": "uint256[]"
        }
      ],
      "payable": false,
      "stateMutability": "nonpayable",
      "type": "function"
    },
    {
      "constant": false,
      "inputs": [
        {
          "internalType": "uint256",
          "name": "index",
          "type": "uint256"
        }
      ],
      "name": "getListing",
      "outputs": [
        {
          "internalType": "string",
          "name": "",
          "type": "string"
        },
        {
          "internalType": "string",
          "name": "",
          "type": "string"
        },
        {
          "internalType": "uint256",
          "name": "",
          "type": "uint256"
        },
        {
          "internalType": "string",
          "name": "",
          "type": "string"
        },
        {
          "internalType": "uint256",
          "name": "",
          "type": "uint256"
        },
        {
          "internalType": "uint256",
          "name": "",
          "type": "uint256"
        },
        {
          "internalType": "uint256",
          "name": "",
          "type": "uint256"
        },
        {
          "internalType": "string",
          "name": "",
          "type": "string"
        },
        {
          "internalType": "string",
          "name": "",
          "type": "string"
        },
        {
          "internalType": "string",
          "name": "",
          "type": "string"
        },
        {
          "internalType": "string",
          "name": "",
          "type": "string"
        }
      ],
      "payable": false,
      "stateMutability": "nonpayable",
      "type": "function"
    }
  ],
  "bytecode": "0x608060405234801561001057600080fd5b506114d5806100206000396000f3fe608060405234801561001057600080fd5b50600436106100575760003560e01c8063107a274a1461005c57806363a4c88614610096578063b1d5c99e146100c6578063b5b86c8b146100e4578063de74e57b14610100575b600080fd5b61007660048036036100719190810190611041565b61013a565b60405161008d9b9a99989796959493929190611192565b60405180910390f35b6100b060048036036100ab9190810190611041565b61067f565b6040516100bd919061126e565b60405180910390f35b6100ce6106a0565b6040516100db9190611170565b60405180910390f35b6100fe60048036036100f99190810190610ebe565b6106f8565b005b61011a60048036036101159190810190611041565b6108d4565b6040516101319b9a99989796959493929190611289565b60405180910390f35b606080600060606000806000606080606080610154610d56565b6000808e81526020019081526020016000206040518061016001604052908160008201548152602001600182018054600181600116156101000203166002900480601f0160208091040260200160405190810160405280929190818152602001828054600181600116156101000203166002900480156102155780601f106101ea57610100808354040283529160200191610215565b820191906000526020600020905b8154815290600101906020018083116101f857829003601f168201915b50505050508152602001600282018054600181600116156101000203166002900480601f0160208091040260200160405190810160405280929190818152602001828054600181600116156101000203166002900480156102b75780601f1061028c576101008083540402835291602001916102b7565b820191906000526020600020905b81548152906001019060200180831161029a57829003601f168201915b5050505050815260200160038201548152602001600482018054600181600116156101000203166002900480601f0160208091040260200160405190810160405280929190818152602001828054600181600116156101000203166002900480156103635780601f1061033857610100808354040283529160200191610363565b820191906000526020600020905b81548152906001019060200180831161034657829003601f168201915b505050505081526020016005820154815260200160068201548152602001600782018054600181600116156101000203166002900480601f0160208091040260200160405190810160405280929190818152602001828054600181600116156101000203166002900480156104195780601f106103ee57610100808354040283529160200191610419565b820191906000526020600020905b8154815290600101906020018083116103fc57829003601f168201915b50505050508152602001600882018054600181600116156101000203166002900480601f0160208091040260200160405190810160405280929190818152602001828054600181600116156101000203166002900480156104bb5780601f10610490576101008083540402835291602001916104bb565b820191906000526020600020905b81548152906001019060200180831161049e57829003601f168201915b50505050508152602001600982018054600181600116156101000203166002900480601f01602080910402602001604051908101604052809291908181526020018280546001816001161561010002031660029004801561055d5780601f106105325761010080835404028352916020019161055d565b820191906000526020600020905b81548152906001019060200180831161054057829003601f168201915b50505050508152602001600a82018054600181600116156101000203166002900480601f0160208091040260200160405190810160405280929190818152602001828054600181600116156101000203166002900480156105ff5780601f106105d4576101008083540402835291602001916105ff565b820191906000526020600020905b8154815290600101906020018083116105e257829003601f168201915b505050505081525050905080602001518160400151826060015183608001518460a001518560c0015186600001518760e001518861010001518961012001518a61014001518a9a508999508797508393508292508191508090509b509b509b509b509b509b509b509b509b509b509b505091939597999b90929496989a50565b6001818154811061068c57fe5b906000526020600020016000915090505481565b606060018054806020026020016040519081016040528092919081815260200182805480156106ee57602002820191906000526020600020905b8154815260200190600101908083116106da575b5050505050905090565b60006002600081548092919060010191905055905080600080838152602001908152602001600020600001819055508a6000808381526020019081526020016000206001019080519060200190610750929190610db0565b5089600080838152602001908152602001600020600201908051906020019061077a929190610db0565b5088600080838152602001908152602001600020600301819055508760008083815260200190815260200160002060040190805190602001906107be929190610db0565b508660008083815260200190815260200160002060050181905550856000808381526020019081526020016000206006018190555084600080838152602001908152602001600020600701908051906020019061081c929190610db0565b50836000808381526020019081526020016000206008019080519060200190610846929190610db0565b50826000808381526020019081526020016000206009019080519060200190610870929190610db0565b5081600080838152602001908152602001600020600a01908051906020019061089a929190610db0565b5060018190806001815401808255809150509060018203906000526020600020016000909192909190915055505050505050505050505050565b6000602052806000526040600020600091509050806000015490806001018054600181600116156101000203166002900480601f0160208091040260200160405190810160405280929190818152602001828054600181600116156101000203166002900480156109865780601f1061095b57610100808354040283529160200191610986565b820191906000526020600020905b81548152906001019060200180831161096957829003601f168201915b505050505090806002018054600181600116156101000203166002900480601f016020809104026020016040519081016040528092919081815260200182805460018160011615610100020316600290048015610a245780601f106109f957610100808354040283529160200191610a24565b820191906000526020600020905b815481529060010190602001808311610a0757829003601f168201915b505050505090806003015490806004018054600181600116156101000203166002900480601f016020809104026020016040519081016040528092919081815260200182805460018160011615610100020316600290048015610ac85780601f10610a9d57610100808354040283529160200191610ac8565b820191906000526020600020905b815481529060010190602001808311610aab57829003601f168201915b505050505090806005015490806006015490806007018054600181600116156101000203166002900480601f016020809104026020016040519081016040528092919081815260200182805460018160011615610100020316600290048015610b725780601f10610b4757610100808354040283529160200191610b72565b820191906000526020600020905b815481529060010190602001808311610b5557829003601f168201915b505050505090806008018054600181600116156101000203166002900480601f016020809104026020016040519081016040528092919081815260200182805460018160011615610100020316600290048015610c105780601f10610be557610100808354040283529160200191610c10565b820191906000526020600020905b815481529060010190602001808311610bf357829003601f168201915b505050505090806009018054600181600116156101000203166002900480601f016020809104026020016040519081016040528092919081815260200182805460018160011615610100020316600290048015610cae5780601f10610c8357610100808354040283529160200191610cae565b820191906000526020600020905b815481529060010190602001808311610c9157829003601f168201915b50505050509080600a018054600181600116156101000203166002900480601f016020809104026020016040519081016040528092919081815260200182805460018160011615610100020316600290048015610d4c5780601f10610d2157610100808354040283529160200191610d4c565b820191906000526020600020905b815481529060010190602001808311610d2f57829003601f168201915b505050505090508b565b60405180610160016040528060008152602001606081526020016060815260200160008152602001606081526020016000815260200160008152602001606081526020016060815260200160608152602001606081525090565b828054600181600116156101000203166002900490600052602060002090601f016020900481019282601f10610df157805160ff1916838001178555610e1f565b82800160010185558215610e1f579182015b82811115610e1e578251825591602001919060010190610e03565b5b509050610e2c9190610e30565b5090565b610e5291905b80821115610e4e576000816000905550600101610e36565b5090565b90565b600082601f830112610e6657600080fd5b8135610e79610e7482611392565b611365565b91508082526020830160208301858383011115610e9557600080fd5b610ea0838284611428565b50505092915050565b600081359050610eb88161147b565b92915050565b6000806000806000806000806000806101408b8d031215610ede57600080fd5b60008b013567ffffffffffffffff811115610ef857600080fd5b610f048d828e01610e55565b9a505060208b013567ffffffffffffffff811115610f2157600080fd5b610f2d8d828e01610e55565b9950506040610f3e8d828e01610ea9565b98505060608b013567ffffffffffffffff811115610f5b57600080fd5b610f678d828e01610e55565b9750506080610f788d828e01610ea9565b96505060a0610f898d828e01610ea9565b95505060c08b013567ffffffffffffffff811115610fa657600080fd5b610fb28d828e01610e55565b94505060e08b013567ffffffffffffffff811115610fcf57600080fd5b610fdb8d828e01610e55565b9350506101008b013567ffffffffffffffff811115610ff957600080fd5b6110058d828e01610e55565b9250506101208b013567ffffffffffffffff81111561102357600080fd5b61102f8d828e01610e55565b9150509295989b9194979a5092959850565b60006020828403121561105357600080fd5b600061106184828501610ea9565b91505092915050565b60006110768383611152565b60208301905092915050565b600061108d826113ce565b61109781856113fc565b93506110a2836113be565b8060005b838110156110d35781516110ba888261106a565b97506110c5836113ef565b9250506001810190506110a6565b5085935050505092915050565b60006110eb826113e4565b6110f5818561140d565b9350611105818560208601611437565b61110e8161146a565b840191505092915050565b6000611124826113d9565b61112e818561140d565b935061113e818560208601611437565b6111478161146a565b840191505092915050565b61115b8161141e565b82525050565b61116a8161141e565b82525050565b6000602082019050818103600083015261118a8184611082565b905092915050565b60006101608201905081810360008301526111ad818e6110e0565b905081810360208301526111c1818d6110e0565b90506111d0604083018c611161565b81810360608301526111e2818b6110e0565b90506111f1608083018a611161565b6111fe60a0830189611161565b61120b60c0830188611161565b81810360e083015261121d81876110e0565b905081810361010083015261123281866110e0565b905081810361012083015261124781856110e0565b905081810361014083015261125c81846110e0565b90509c9b505050505050505050505050565b60006020820190506112836000830184611161565b92915050565b60006101608201905061129f600083018e611161565b81810360208301526112b1818d611119565b905081810360408301526112c5818c611119565b90506112d4606083018b611161565b81810360808301526112e6818a611119565b90506112f560a0830189611161565b61130260c0830188611161565b81810360e08301526113148187611119565b90508181036101008301526113298186611119565b905081810361012083015261133e8185611119565b90508181036101408301526113538184611119565b90509c9b505050505050505050505050565b6000604051905081810181811067ffffffffffffffff8211171561138857600080fd5b8060405250919050565b600067ffffffffffffffff8211156113a957600080fd5b601f19601f8301169050602081019050919050565b6000819050602082019050919050565b600081519050919050565b600081519050919050565b600081519050919050565b6000602082019050919050565b600082825260208201905092915050565b600082825260208201905092915050565b6000819050919050565b82818337600083830152505050565b60005b8381101561145557808201518184015260208101905061143a565b83811115611464576000848401525b50505050565b6000601f19601f8301169050919050565b6114848161141e565b811461148f57600080fd5b5056fea365627a7a723158206c57483e5e4552cc24a31d5e9f6226e10c0daa16cb6618af1f252d5520144df26c6578706572696d656e74616cf564736f6c63430005100040",
  "source": "pragma solidity ^0.5.0;\npragma experimental ABIEncoderV2;\n\ncontract CreateListing {\n\n  \n\tstruct Listing {\n        uint id; \n\t    string name;\n        string addr;\n        uint price;\n        string description;\n        uint numBed;\n        uint numBath;\n        string landlordName;\n        string landlordEmail;\n        string landlordPhone;\n        string landlordBio;\n        \n\t}\n\n\n\tmapping(uint => Listing) public listings;\t\n\t\n    uint[] public listingIndexes;\n\tuint listingCounter;\n\t\n    function addListing(string memory name_form, string memory address_form, uint price_form,  string memory description_form, uint numBed_form, uint numBath_form, string memory fullName, string  memory email, string memory phone, string memory bio) public {\n        uint listingId = listingCounter++;\n        listings[listingId].id = listingId;\n        listings[listingId].name = name_form;\n        listings[listingId].addr = address_form;\n        listings[listingId].price = price_form;\n\n        listings[listingId].description = description_form;\n        listings[listingId].numBed = numBed_form;\n        listings[listingId].numBath = numBath_form;\n        listings[listingId].landlordName = fullName;\n        listings[listingId].landlordEmail = email;\n       listings[listingId].landlordPhone = phone;\n       listings[listingId].landlordBio = bio;\n\n       listingIndexes.push(listingId);\n        \n    }\n\n   \n\t\n\tfunction getListingIndexes() public returns (uint[] memory) {\n\t\treturn listingIndexes;\n\t}\n\t\n\n    \n\tfunction getListing(uint index) public returns (string memory, string memory, uint, string memory, uint, uint, uint, string memory, string memory, string memory, string memory) {\n \t\tListing memory house = listings[index];\t\t\n\t\n\t\treturn (house.name, house.addr,  house.price,house.description, house.numBed, house.numBath, house.id, house.landlordName, house.landlordEmail, house.landlordPhone, house.landlordBio);\n\t}\n\n\n\t\n}\t\n",
  "sourcePath": "/Users/emmakenny/FYP-blockchain/blockchain-ek/contracts/CreateListing.sol",
  "compiler": {
    "name": "solc",
    "version": "0.5.16+commit.9c3226ce.Emscripten.clang"
  },
  "schemaVersion": "3.0.23",
  "updatedAt": "2020-02-10T15:28:20.163Z",
  "networkType": "ethereum",
  "devdoc": {
    "methods": {}
  },
  "userdoc": {
    "methods": {}
  }
}