{
  "contractName": "CreateListing",
  "abi": [
    {
      "constant": true,
      "inputs": [
        {
          "internalType": "uint256",
          "name": "",
          "type": "uint256"
        }
      ],
      "name": "agreementIndexes",
      "outputs": [
        {
          "internalType": "uint256",
          "name": "",
          "type": "uint256"
        }
      ],
      "payable": false,
      "stateMutability": "view",
      "type": "function"
    },
    {
      "constant": true,
      "inputs": [
        {
          "internalType": "uint256",
          "name": "",
          "type": "uint256"
        }
      ],
      "name": "agreements",
      "outputs": [
        {
          "internalType": "uint256",
          "name": "id",
          "type": "uint256"
        },
        {
          "internalType": "string",
          "name": "landlord",
          "type": "string"
        },
        {
          "internalType": "string",
          "name": "tenant",
          "type": "string"
        },
        {
          "internalType": "string",
          "name": "title",
          "type": "string"
        },
        {
          "internalType": "string",
          "name": "addr",
          "type": "string"
        },
        {
          "internalType": "string",
          "name": "start",
          "type": "string"
        },
        {
          "internalType": "string",
          "name": "end",
          "type": "string"
        },
        {
          "internalType": "uint256",
          "name": "rent",
          "type": "uint256"
        },
        {
          "internalType": "string",
          "name": "todayDate",
          "type": "string"
        },
        {
          "internalType": "bool",
          "name": "signed",
          "type": "bool"
        }
      ],
      "payable": false,
      "stateMutability": "view",
      "type": "function"
    },
    {
      "constant": true,
      "inputs": [
        {
          "internalType": "uint256",
          "name": "",
          "type": "uint256"
        }
      ],
      "name": "listingIndexes",
      "outputs": [
        {
          "internalType": "uint256",
          "name": "",
          "type": "uint256"
        }
      ],
      "payable": false,
      "stateMutability": "view",
      "type": "function"
    },
    {
      "constant": true,
      "inputs": [
        {
          "internalType": "uint256",
          "name": "",
          "type": "uint256"
        }
      ],
      "name": "listings",
      "outputs": [
        {
          "internalType": "uint256",
          "name": "id",
          "type": "uint256"
        },
        {
          "internalType": "string",
          "name": "name",
          "type": "string"
        },
        {
          "internalType": "string",
          "name": "addr",
          "type": "string"
        },
        {
          "internalType": "string",
          "name": "county",
          "type": "string"
        },
        {
          "internalType": "uint256",
          "name": "price",
          "type": "uint256"
        },
        {
          "internalType": "string",
          "name": "description",
          "type": "string"
        },
        {
          "internalType": "uint256",
          "name": "numBed",
          "type": "uint256"
        },
        {
          "internalType": "uint256",
          "name": "numBath",
          "type": "uint256"
        },
        {
          "internalType": "string",
          "name": "landlordId",
          "type": "string"
        }
      ],
      "payable": false,
      "stateMutability": "view",
      "type": "function"
    },
    {
      "constant": false,
      "inputs": [
        {
          "internalType": "string",
          "name": "name_form",
          "type": "string"
        },
        {
          "internalType": "string",
          "name": "address_form",
          "type": "string"
        },
        {
          "internalType": "string",
          "name": "county_form",
          "type": "string"
        },
        {
          "internalType": "uint256",
          "name": "price_form",
          "type": "uint256"
        },
        {
          "internalType": "string",
          "name": "description_form",
          "type": "string"
        },
        {
          "internalType": "uint256",
          "name": "numBed_form",
          "type": "uint256"
        },
        {
          "internalType": "uint256",
          "name": "numBath_form",
          "type": "uint256"
        },
        {
          "internalType": "string",
          "name": "landlordId_form",
          "type": "string"
        }
      ],
      "name": "addListing",
      "outputs": [],
      "payable": false,
      "stateMutability": "nonpayable",
      "type": "function"
    },
    {
      "constant": false,
      "inputs": [
        {
          "internalType": "string",
          "name": "tenant_form",
          "type": "string"
        },
        {
          "internalType": "string",
          "name": "landlord_form",
          "type": "string"
        },
        {
          "internalType": "string",
          "name": "title_form",
          "type": "string"
        },
        {
          "internalType": "string",
          "name": "address_form",
          "type": "string"
        },
        {
          "internalType": "string",
          "name": "start_form",
          "type": "string"
        },
        {
          "internalType": "string",
          "name": "end_form",
          "type": "string"
        },
        {
          "internalType": "uint256",
          "name": "rent_form",
          "type": "uint256"
        },
        {
          "internalType": "string",
          "name": "date_form",
          "type": "string"
        }
      ],
      "name": "addAgreement",
      "outputs": [],
      "payable": false,
      "stateMutability": "nonpayable",
      "type": "function"
    },
    {
      "constant": false,
      "inputs": [],
      "name": "getAgreementIndexes",
      "outputs": [
        {
          "internalType": "uint256[]",
          "name": "",
          "type": "uint256[]"
        }
      ],
      "payable": false,
      "stateMutability": "nonpayable",
      "type": "function"
    },
    {
      "constant": false,
      "inputs": [],
      "name": "getListingIndexes",
      "outputs": [
        {
          "internalType": "uint256[]",
          "name": "",
          "type": "uint256[]"
        }
      ],
      "payable": false,
      "stateMutability": "nonpayable",
      "type": "function"
    },
    {
      "constant": false,
      "inputs": [
        {
          "internalType": "uint256",
          "name": "index",
          "type": "uint256"
        }
      ],
      "name": "getAgreement",
      "outputs": [
        {
          "internalType": "uint256",
          "name": "",
          "type": "uint256"
        },
        {
          "internalType": "string",
          "name": "",
          "type": "string"
        },
        {
          "internalType": "string",
          "name": "",
          "type": "string"
        },
        {
          "internalType": "string",
          "name": "",
          "type": "string"
        },
        {
          "internalType": "string",
          "name": "",
          "type": "string"
        },
        {
          "internalType": "string",
          "name": "",
          "type": "string"
        },
        {
          "internalType": "string",
          "name": "",
          "type": "string"
        },
        {
          "internalType": "uint256",
          "name": "",
          "type": "uint256"
        },
        {
          "internalType": "string",
          "name": "",
          "type": "string"
        },
        {
          "internalType": "bool",
          "name": "",
          "type": "bool"
        }
      ],
      "payable": false,
      "stateMutability": "nonpayable",
      "type": "function"
    },
    {
      "constant": false,
      "inputs": [
        {
          "internalType": "uint256",
          "name": "index",
          "type": "uint256"
        }
      ],
      "name": "getListing",
      "outputs": [
        {
          "internalType": "string",
          "name": "",
          "type": "string"
        },
        {
          "internalType": "string",
          "name": "",
          "type": "string"
        },
        {
          "internalType": "string",
          "name": "",
          "type": "string"
        },
        {
          "internalType": "uint256",
          "name": "",
          "type": "uint256"
        },
        {
          "internalType": "string",
          "name": "",
          "type": "string"
        },
        {
          "internalType": "uint256",
          "name": "",
          "type": "uint256"
        },
        {
          "internalType": "uint256",
          "name": "",
          "type": "uint256"
        },
        {
          "internalType": "uint256",
          "name": "",
          "type": "uint256"
        },
        {
          "internalType": "string",
          "name": "",
          "type": "string"
        }
      ],
      "payable": false,
      "stateMutability": "nonpayable",
      "type": "function"
    },
    {
      "constant": false,
      "inputs": [
        {
          "internalType": "uint256",
          "name": "index",
          "type": "uint256"
        }
      ],
      "name": "signAgreement",
      "outputs": [],
      "payable": false,
      "stateMutability": "nonpayable",
      "type": "function"
    }
  ],
  "bytecode": "0x608060405234801561001057600080fd5b506121f4806100206000396000f3fe608060405234801561001057600080fd5b50600436106100a95760003560e01c8063a82ee27911610071578063a82ee27914610187578063b1d5c99e146101b7578063bd14de96146101d5578063c0160e701461020e578063de74e57b1461022a578063e30a83da14610262576100a9565b806303742de0146100ae578063107a274a146100ca57806345a541ea146101025780634f9f6fe61461011e57806363a4c88614610157575b600080fd5b6100c860048036036100c39190810190611c03565b610280565b005b6100e460048036036100df9190810190611c03565b6102b1565b6040516100f999989796959493929190611d63565b60405180910390f35b61011c6004803603610117919081019061197f565b610698565b005b61013860048036036101339190810190611c03565b610847565b60405161014e9a99989796959493929190611e2e565b60405180910390f35b610171600480360361016c9190810190611c03565b610d89565b60405161017e9190611e13565b60405180910390f35b6101a1600480360361019c9190810190611c03565b610daa565b6040516101ae9190611e13565b60405180910390f35b6101bf610dcb565b6040516101cc9190611d41565b60405180910390f35b6101ef60048036036101ea9190810190611c03565b610e23565b6040516102059a99989796959493929190611efb565b60405180910390f35b61022860048036036102239190810190611ad9565b6112ac565b005b610244600480360361023f9190810190611c03565b611432565b60405161025999989796959493929190611fc8565b60405180910390f35b61026a611778565b6040516102779190611d41565b60405180910390f35b600180600083815260200190815260200160002060090160006101000a81548160ff02191690831515021790555050565b606080606060006060600080600060606102c96117d0565b6000808c81526020019081526020016000206040518061012001604052908160008201548152602001600182018054600181600116156101000203166002900480601f01602080910402602001604051908101604052809291908181526020018280546001816001161561010002031660029004801561038a5780601f1061035f5761010080835404028352916020019161038a565b820191906000526020600020905b81548152906001019060200180831161036d57829003601f168201915b50505050508152602001600282018054600181600116156101000203166002900480601f01602080910402602001604051908101604052809291908181526020018280546001816001161561010002031660029004801561042c5780601f106104015761010080835404028352916020019161042c565b820191906000526020600020905b81548152906001019060200180831161040f57829003601f168201915b50505050508152602001600382018054600181600116156101000203166002900480601f0160208091040260200160405190810160405280929190818152602001828054600181600116156101000203166002900480156104ce5780601f106104a3576101008083540402835291602001916104ce565b820191906000526020600020905b8154815290600101906020018083116104b157829003601f168201915b5050505050815260200160048201548152602001600582018054600181600116156101000203166002900480601f01602080910402602001604051908101604052809291908181526020018280546001816001161561010002031660029004801561057a5780601f1061054f5761010080835404028352916020019161057a565b820191906000526020600020905b81548152906001019060200180831161055d57829003601f168201915b505050505081526020016006820154815260200160078201548152602001600882018054600181600116156101000203166002900480601f0160208091040260200160405190810160405280929190818152602001828054600181600116156101000203166002900480156106305780601f1061060557610100808354040283529160200191610630565b820191906000526020600020905b81548152906001019060200180831161061357829003601f168201915b505050505081525050905080602001518160400151826060015183608001518460a001518560c001518660e001518760000151886101000151889850879750869650849450809050995099509950995099509950995099509950509193959799909294969850565b600060046000815480929190600101919050559050806001600083815260200190815260200160002060000181905550876001600083815260200190815260200160002060010190805190602001906106f292919061181c565b508860016000838152602001908152602001600020600201908051906020019061071d92919061181c565b508660016000838152602001908152602001600020600301908051906020019061074892919061181c565b508560016000838152602001908152602001600020600401908051906020019061077392919061181c565b508460016000838152602001908152602001600020600501908051906020019061079e92919061181c565b50836001600083815260200190815260200160002060060190805190602001906107c992919061181c565b508260016000838152602001908152602001600020600701819055508160016000838152602001908152602001600020600801908051906020019061080f92919061181c565b506003819080600181540180825580915050906001820390600052602060002001600090919290919091505550505050505050505050565b600060608060608060608060006060600061086061189c565b600160008d81526020019081526020016000206040518061014001604052908160008201548152602001600182018054600181600116156101000203166002900480601f0160208091040260200160405190810160405280929190818152602001828054600181600116156101000203166002900480156109225780601f106108f757610100808354040283529160200191610922565b820191906000526020600020905b81548152906001019060200180831161090557829003601f168201915b50505050508152602001600282018054600181600116156101000203166002900480601f0160208091040260200160405190810160405280929190818152602001828054600181600116156101000203166002900480156109c45780601f10610999576101008083540402835291602001916109c4565b820191906000526020600020905b8154815290600101906020018083116109a757829003601f168201915b50505050508152602001600382018054600181600116156101000203166002900480601f016020809104026020016040519081016040528092919081815260200182805460018160011615610100020316600290048015610a665780601f10610a3b57610100808354040283529160200191610a66565b820191906000526020600020905b815481529060010190602001808311610a4957829003601f168201915b50505050508152602001600482018054600181600116156101000203166002900480601f016020809104026020016040519081016040528092919081815260200182805460018160011615610100020316600290048015610b085780601f10610add57610100808354040283529160200191610b08565b820191906000526020600020905b815481529060010190602001808311610aeb57829003601f168201915b50505050508152602001600582018054600181600116156101000203166002900480601f016020809104026020016040519081016040528092919081815260200182805460018160011615610100020316600290048015610baa5780601f10610b7f57610100808354040283529160200191610baa565b820191906000526020600020905b815481529060010190602001808311610b8d57829003601f168201915b50505050508152602001600682018054600181600116156101000203166002900480601f016020809104026020016040519081016040528092919081815260200182805460018160011615610100020316600290048015610c4c5780601f10610c2157610100808354040283529160200191610c4c565b820191906000526020600020905b815481529060010190602001808311610c2f57829003601f168201915b5050505050815260200160078201548152602001600882018054600181600116156101000203166002900480601f016020809104026020016040519081016040528092919081815260200182805460018160011615610100020316600290048015610cf85780601f10610ccd57610100808354040283529160200191610cf8565b820191906000526020600020905b815481529060010190602001808311610cdb57829003601f168201915b505050505081526020016009820160009054906101000a900460ff1615151515815250509050806000015181602001518260400151836060015184608001518560a001518660c001518760e001518861010001518961012001518898508797508696508595508494508393508191509a509a509a509a509a509a509a509a509a509a50509193959799509193959799565b60028181548110610d9657fe5b906000526020600020016000915090505481565b60038181548110610db757fe5b906000526020600020016000915090505481565b60606002805480602002602001604051908101604052809291908181526020018280548015610e1957602002820191906000526020600020905b815481526020019060010190808311610e05575b5050505050905090565b6001602052806000526040600020600091509050806000015490806001018054600181600116156101000203166002900480601f016020809104026020016040519081016040528092919081815260200182805460018160011615610100020316600290048015610ed55780601f10610eaa57610100808354040283529160200191610ed5565b820191906000526020600020905b815481529060010190602001808311610eb857829003601f168201915b505050505090806002018054600181600116156101000203166002900480601f016020809104026020016040519081016040528092919081815260200182805460018160011615610100020316600290048015610f735780601f10610f4857610100808354040283529160200191610f73565b820191906000526020600020905b815481529060010190602001808311610f5657829003601f168201915b505050505090806003018054600181600116156101000203166002900480601f0160208091040260200160405190810160405280929190818152602001828054600181600116156101000203166002900480156110115780601f10610fe657610100808354040283529160200191611011565b820191906000526020600020905b815481529060010190602001808311610ff457829003601f168201915b505050505090806004018054600181600116156101000203166002900480601f0160208091040260200160405190810160405280929190818152602001828054600181600116156101000203166002900480156110af5780601f10611084576101008083540402835291602001916110af565b820191906000526020600020905b81548152906001019060200180831161109257829003601f168201915b505050505090806005018054600181600116156101000203166002900480601f01602080910402602001604051908101604052809291908181526020018280546001816001161561010002031660029004801561114d5780601f106111225761010080835404028352916020019161114d565b820191906000526020600020905b81548152906001019060200180831161113057829003601f168201915b505050505090806006018054600181600116156101000203166002900480601f0160208091040260200160405190810160405280929190818152602001828054600181600116156101000203166002900480156111eb5780601f106111c0576101008083540402835291602001916111eb565b820191906000526020600020905b8154815290600101906020018083116111ce57829003601f168201915b505050505090806007015490806008018054600181600116156101000203166002900480601f01602080910402602001604051908101604052809291908181526020018280546001816001161561010002031660029004801561128f5780601f106112645761010080835404028352916020019161128f565b820191906000526020600020905b81548152906001019060200180831161127257829003601f168201915b5050505050908060090160009054906101000a900460ff1690508a565b600060056000815480929190600101919050559050806000808381526020019081526020016000206000018190555088600080838152602001908152602001600020600101908051906020019061130492919061181c565b5087600080838152602001908152602001600020600201908051906020019061132e92919061181c565b5086600080838152602001908152602001600020600301908051906020019061135892919061181c565b50856000808381526020019081526020016000206004018190555084600080838152602001908152602001600020600501908051906020019061139c92919061181c565b50836000808381526020019081526020016000206006018190555082600080838152602001908152602001600020600701819055508160008083815260200190815260200160002060080190805190602001906113fa92919061181c565b506002819080600181540180825580915050906001820390600052602060002001600090919290919091505550505050505050505050565b6000602052806000526040600020600091509050806000015490806001018054600181600116156101000203166002900480601f0160208091040260200160405190810160405280929190818152602001828054600181600116156101000203166002900480156114e45780601f106114b9576101008083540402835291602001916114e4565b820191906000526020600020905b8154815290600101906020018083116114c757829003601f168201915b505050505090806002018054600181600116156101000203166002900480601f0160208091040260200160405190810160405280929190818152602001828054600181600116156101000203166002900480156115825780601f1061155757610100808354040283529160200191611582565b820191906000526020600020905b81548152906001019060200180831161156557829003601f168201915b505050505090806003018054600181600116156101000203166002900480601f0160208091040260200160405190810160405280929190818152602001828054600181600116156101000203166002900480156116205780601f106115f557610100808354040283529160200191611620565b820191906000526020600020905b81548152906001019060200180831161160357829003601f168201915b505050505090806004015490806005018054600181600116156101000203166002900480601f0160208091040260200160405190810160405280929190818152602001828054600181600116156101000203166002900480156116c45780601f10611699576101008083540402835291602001916116c4565b820191906000526020600020905b8154815290600101906020018083116116a757829003601f168201915b505050505090806006015490806007015490806008018054600181600116156101000203166002900480601f01602080910402602001604051908101604052809291908181526020018280546001816001161561010002031660029004801561176e5780601f106117435761010080835404028352916020019161176e565b820191906000526020600020905b81548152906001019060200180831161175157829003601f168201915b5050505050905089565b606060038054806020026020016040519081016040528092919081815260200182805480156117c657602002820191906000526020600020905b8154815260200190600101908083116117b2575b5050505050905090565b6040518061012001604052806000815260200160608152602001606081526020016060815260200160008152602001606081526020016000815260200160008152602001606081525090565b828054600181600116156101000203166002900490600052602060002090601f016020900481019282601f1061185d57805160ff191683800117855561188b565b8280016001018555821561188b579182015b8281111561188a57825182559160200191906001019061186f565b5b50905061189891906118f1565b5090565b6040518061014001604052806000815260200160608152602001606081526020016060815260200160608152602001606081526020016060815260200160008152602001606081526020016000151581525090565b61191391905b8082111561190f5760008160009055506001016118f7565b5090565b90565b600082601f83011261192757600080fd5b813561193a611935826120a5565b612078565b9150808252602083016020830185838301111561195657600080fd5b611961838284612147565b50505092915050565b6000813590506119798161219a565b92915050565b600080600080600080600080610100898b03121561199c57600080fd5b600089013567ffffffffffffffff8111156119b657600080fd5b6119c28b828c01611916565b985050602089013567ffffffffffffffff8111156119df57600080fd5b6119eb8b828c01611916565b975050604089013567ffffffffffffffff811115611a0857600080fd5b611a148b828c01611916565b965050606089013567ffffffffffffffff811115611a3157600080fd5b611a3d8b828c01611916565b955050608089013567ffffffffffffffff811115611a5a57600080fd5b611a668b828c01611916565b94505060a089013567ffffffffffffffff811115611a8357600080fd5b611a8f8b828c01611916565b93505060c0611aa08b828c0161196a565b92505060e089013567ffffffffffffffff811115611abd57600080fd5b611ac98b828c01611916565b9150509295985092959890939650565b600080600080600080600080610100898b031215611af657600080fd5b600089013567ffffffffffffffff811115611b1057600080fd5b611b1c8b828c01611916565b985050602089013567ffffffffffffffff811115611b3957600080fd5b611b458b828c01611916565b975050604089013567ffffffffffffffff811115611b6257600080fd5b611b6e8b828c01611916565b9650506060611b7f8b828c0161196a565b955050608089013567ffffffffffffffff811115611b9c57600080fd5b611ba88b828c01611916565b94505060a0611bb98b828c0161196a565b93505060c0611bca8b828c0161196a565b92505060e089013567ffffffffffffffff811115611be757600080fd5b611bf38b828c01611916565b9150509295985092959890939650565b600060208284031215611c1557600080fd5b6000611c238482850161196a565b91505092915050565b6000611c388383611d23565b60208301905092915050565b6000611c4f826120e1565b611c59818561210f565b9350611c64836120d1565b8060005b83811015611c95578151611c7c8882611c2c565b9750611c8783612102565b925050600181019050611c68565b5085935050505092915050565b611cab81612131565b82525050565b6000611cbc826120f7565b611cc68185612120565b9350611cd6818560208601612156565b611cdf81612189565b840191505092915050565b6000611cf5826120ec565b611cff8185612120565b9350611d0f818560208601612156565b611d1881612189565b840191505092915050565b611d2c8161213d565b82525050565b611d3b8161213d565b82525050565b60006020820190508181036000830152611d5b8184611c44565b905092915050565b6000610120820190508181036000830152611d7e818c611cb1565b90508181036020830152611d92818b611cb1565b90508181036040830152611da6818a611cb1565b9050611db56060830189611d32565b8181036080830152611dc78188611cb1565b9050611dd660a0830187611d32565b611de360c0830186611d32565b611df060e0830185611d32565b818103610100830152611e038184611cb1565b90509a9950505050505050505050565b6000602082019050611e286000830184611d32565b92915050565b600061014082019050611e44600083018d611d32565b8181036020830152611e56818c611cb1565b90508181036040830152611e6a818b611cb1565b90508181036060830152611e7e818a611cb1565b90508181036080830152611e928189611cb1565b905081810360a0830152611ea68188611cb1565b905081810360c0830152611eba8187611cb1565b9050611ec960e0830186611d32565b818103610100830152611edc8185611cb1565b9050611eec610120830184611ca2565b9b9a5050505050505050505050565b600061014082019050611f11600083018d611d32565b8181036020830152611f23818c611cea565b90508181036040830152611f37818b611cea565b90508181036060830152611f4b818a611cea565b90508181036080830152611f5f8189611cea565b905081810360a0830152611f738188611cea565b905081810360c0830152611f878187611cea565b9050611f9660e0830186611d32565b818103610100830152611fa98185611cea565b9050611fb9610120830184611ca2565b9b9a5050505050505050505050565b600061012082019050611fde600083018c611d32565b8181036020830152611ff0818b611cea565b90508181036040830152612004818a611cea565b905081810360608301526120188189611cea565b90506120276080830188611d32565b81810360a08301526120398187611cea565b905061204860c0830186611d32565b61205560e0830185611d32565b8181036101008301526120688184611cea565b90509a9950505050505050505050565b6000604051905081810181811067ffffffffffffffff8211171561209b57600080fd5b8060405250919050565b600067ffffffffffffffff8211156120bc57600080fd5b601f19601f8301169050602081019050919050565b6000819050602082019050919050565b600081519050919050565b600081519050919050565b600081519050919050565b6000602082019050919050565b600082825260208201905092915050565b600082825260208201905092915050565b60008115159050919050565b6000819050919050565b82818337600083830152505050565b60005b83811015612174578082015181840152602081019050612159565b83811115612183576000848401525b50505050565b6000601f19601f8301169050919050565b6121a38161213d565b81146121ae57600080fd5b5056fea365627a7a723158200a0d6b4b9aa25d935ba886424a744a3fd6f04284b323f52948ffcf9b1e87ada46c6578706572696d656e74616cf564736f6c63430005100040",
  "source": "pragma solidity ^0.5.0;\npragma experimental ABIEncoderV2;\n\ncontract CreateListing {\n\n  \n\tstruct Listing {\n        uint id; \n\t    string name;\n        string addr;\n        string county;\n        uint price;\n        string description;\n        uint numBed;\n        uint numBath;\n        string landlordId;\n        \n\t}\n\n    struct Agreement {\n        uint id;\n        string landlord;\n        string tenant;\n        string title;\n        string addr;\n        string start;\n        string end;\n        uint rent;\n        string todayDate;\n        bool signed;\n    }\n\n\n\tmapping(uint => Listing) public listings;\t\n    mapping(uint => Agreement) public agreements;\n\t\n    uint[] public listingIndexes;\n    uint[] public agreementIndexes;\n    uint agreementCounter;\n\tuint listingCounter;\n\t\n    function addListing(string memory name_form, string memory address_form, string memory county_form, uint price_form,  string memory description_form, uint numBed_form, uint numBath_form, string memory landlordId_form) public {\n        uint listingId = listingCounter++;\n        listings[listingId].id = listingId;\n        listings[listingId].name = name_form;\n        listings[listingId].addr = address_form;\n        listings[listingId].county = county_form;\n        listings[listingId].price = price_form;\n        listings[listingId].description = description_form;\n        listings[listingId].numBed = numBed_form;\n        listings[listingId].numBath = numBath_form;\n        listings[listingId].landlordId = landlordId_form;\n       \n\n       listingIndexes.push(listingId);\n        \n    }\n\n    function addAgreement(string memory tenant_form, string memory landlord_form, string memory title_form, string memory address_form, string memory start_form, string memory end_form, uint rent_form, string memory date_form) public {\n        uint agreementId = agreementCounter++;\n\n        agreements[agreementId].id = agreementId;\n        agreements[agreementId].landlord = landlord_form;\n        agreements[agreementId].tenant = tenant_form;\n        agreements[agreementId].title  = title_form;\n        agreements[agreementId].addr = address_form;\n        agreements[agreementId].start = start_form;\n        agreements[agreementId].end = end_form;\n        agreements[agreementId].rent = rent_form;\n        agreements[agreementId].todayDate = date_form;\n\n        agreementIndexes.push(agreementId);\n    }\n\n   function getAgreementIndexes() public returns (uint[] memory) {\n       return agreementIndexes;\n   }\n\t\n\tfunction getListingIndexes() public returns (uint[] memory) {\n\t\treturn listingIndexes;\n\t}\n\t\n    function getAgreement(uint index) public returns (uint, string memory, string memory, string memory, string memory, string memory, string memory, uint, string memory, bool) {\n        Agreement memory agree = agreements[index];\n\n        return (agree.id, agree.landlord, agree.tenant, agree.title, agree.addr, agree.start, agree.end, agree.rent, agree.todayDate, agree.signed);\n    }\n\n\tfunction getListing(uint index) public returns (string memory, string memory, string memory, uint, string memory, uint, uint, uint, string memory) {\n \t\tListing memory house = listings[index];\t\t\n\t\n\t\treturn (house.name, house.addr, house.county, house.price,house.description, house.numBed, house.numBath, house.id, house.landlordId);\n\t}\n\n    function signAgreement(uint index) public {\n        agreements[index].signed = true;\n    }\n\t\n}\t\n",
  "sourcePath": "/Users/emmakenny/FYP-blockchain/blockchain-ek/contracts/CreateListing.sol",
  "compiler": {
    "name": "solc",
    "version": "0.5.16+commit.9c3226ce.Emscripten.clang"
  },
  "schemaVersion": "3.0.23",
  "updatedAt": "2020-03-09T16:55:25.511Z",
  "networkType": "ethereum",
  "devdoc": {
    "methods": {}
  },
  "userdoc": {
    "methods": {}
  }
}