{
  "contractName": "CreateListing",
  "abi": [
    {
      "constant": true,
      "inputs": [
        {
          "internalType": "uint256",
          "name": "",
          "type": "uint256"
        }
      ],
      "name": "agreementIndexes",
      "outputs": [
        {
          "internalType": "uint256",
          "name": "",
          "type": "uint256"
        }
      ],
      "payable": false,
      "stateMutability": "view",
      "type": "function"
    },
    {
      "constant": true,
      "inputs": [
        {
          "internalType": "uint256",
          "name": "",
          "type": "uint256"
        }
      ],
      "name": "agreements",
      "outputs": [
        {
          "internalType": "uint256",
          "name": "id",
          "type": "uint256"
        },
        {
          "internalType": "string",
          "name": "landlord",
          "type": "string"
        },
        {
          "internalType": "string",
          "name": "tenant",
          "type": "string"
        },
        {
          "internalType": "string",
          "name": "title",
          "type": "string"
        },
        {
          "internalType": "string",
          "name": "addr",
          "type": "string"
        },
        {
          "internalType": "string",
          "name": "start",
          "type": "string"
        },
        {
          "internalType": "string",
          "name": "end",
          "type": "string"
        },
        {
          "internalType": "uint256",
          "name": "rent",
          "type": "uint256"
        },
        {
          "internalType": "string",
          "name": "todayDate",
          "type": "string"
        }
      ],
      "payable": false,
      "stateMutability": "view",
      "type": "function"
    },
    {
      "constant": true,
      "inputs": [
        {
          "internalType": "uint256",
          "name": "",
          "type": "uint256"
        }
      ],
      "name": "listingIndexes",
      "outputs": [
        {
          "internalType": "uint256",
          "name": "",
          "type": "uint256"
        }
      ],
      "payable": false,
      "stateMutability": "view",
      "type": "function"
    },
    {
      "constant": true,
      "inputs": [
        {
          "internalType": "uint256",
          "name": "",
          "type": "uint256"
        }
      ],
      "name": "listings",
      "outputs": [
        {
          "internalType": "uint256",
          "name": "id",
          "type": "uint256"
        },
        {
          "internalType": "string",
          "name": "name",
          "type": "string"
        },
        {
          "internalType": "string",
          "name": "addr",
          "type": "string"
        },
        {
          "internalType": "string",
          "name": "county",
          "type": "string"
        },
        {
          "internalType": "uint256",
          "name": "price",
          "type": "uint256"
        },
        {
          "internalType": "string",
          "name": "description",
          "type": "string"
        },
        {
          "internalType": "uint256",
          "name": "numBed",
          "type": "uint256"
        },
        {
          "internalType": "uint256",
          "name": "numBath",
          "type": "uint256"
        },
        {
          "internalType": "string",
          "name": "landlordId",
          "type": "string"
        }
      ],
      "payable": false,
      "stateMutability": "view",
      "type": "function"
    },
    {
      "constant": false,
      "inputs": [
        {
          "internalType": "string",
          "name": "name_form",
          "type": "string"
        },
        {
          "internalType": "string",
          "name": "address_form",
          "type": "string"
        },
        {
          "internalType": "string",
          "name": "county_form",
          "type": "string"
        },
        {
          "internalType": "uint256",
          "name": "price_form",
          "type": "uint256"
        },
        {
          "internalType": "string",
          "name": "description_form",
          "type": "string"
        },
        {
          "internalType": "uint256",
          "name": "numBed_form",
          "type": "uint256"
        },
        {
          "internalType": "uint256",
          "name": "numBath_form",
          "type": "uint256"
        },
        {
          "internalType": "string",
          "name": "landlordId_form",
          "type": "string"
        }
      ],
      "name": "addListing",
      "outputs": [],
      "payable": false,
      "stateMutability": "nonpayable",
      "type": "function"
    },
    {
      "constant": false,
      "inputs": [
        {
          "internalType": "string",
          "name": "tenant_form",
          "type": "string"
        },
        {
          "internalType": "string",
          "name": "landlord_form",
          "type": "string"
        },
        {
          "internalType": "string",
          "name": "title_form",
          "type": "string"
        },
        {
          "internalType": "string",
          "name": "address_form",
          "type": "string"
        },
        {
          "internalType": "string",
          "name": "start_form",
          "type": "string"
        },
        {
          "internalType": "string",
          "name": "end_form",
          "type": "string"
        },
        {
          "internalType": "uint256",
          "name": "rent_form",
          "type": "uint256"
        },
        {
          "internalType": "string",
          "name": "date_form",
          "type": "string"
        }
      ],
      "name": "addAgreement",
      "outputs": [],
      "payable": false,
      "stateMutability": "nonpayable",
      "type": "function"
    },
    {
      "constant": false,
      "inputs": [],
      "name": "getAgreementIndexes",
      "outputs": [
        {
          "internalType": "uint256[]",
          "name": "",
          "type": "uint256[]"
        }
      ],
      "payable": false,
      "stateMutability": "nonpayable",
      "type": "function"
    },
    {
      "constant": false,
      "inputs": [],
      "name": "getListingIndexes",
      "outputs": [
        {
          "internalType": "uint256[]",
          "name": "",
          "type": "uint256[]"
        }
      ],
      "payable": false,
      "stateMutability": "nonpayable",
      "type": "function"
    },
    {
      "constant": false,
      "inputs": [
        {
          "internalType": "uint256",
          "name": "index",
          "type": "uint256"
        }
      ],
      "name": "getAgreement",
      "outputs": [
        {
          "internalType": "string",
          "name": "",
          "type": "string"
        },
        {
          "internalType": "string",
          "name": "",
          "type": "string"
        },
        {
          "internalType": "string",
          "name": "",
          "type": "string"
        },
        {
          "internalType": "string",
          "name": "",
          "type": "string"
        },
        {
          "internalType": "string",
          "name": "",
          "type": "string"
        },
        {
          "internalType": "string",
          "name": "",
          "type": "string"
        },
        {
          "internalType": "uint256",
          "name": "",
          "type": "uint256"
        },
        {
          "internalType": "string",
          "name": "",
          "type": "string"
        }
      ],
      "payable": false,
      "stateMutability": "nonpayable",
      "type": "function"
    },
    {
      "constant": false,
      "inputs": [
        {
          "internalType": "uint256",
          "name": "index",
          "type": "uint256"
        }
      ],
      "name": "getListing",
      "outputs": [
        {
          "internalType": "string",
          "name": "",
          "type": "string"
        },
        {
          "internalType": "string",
          "name": "",
          "type": "string"
        },
        {
          "internalType": "string",
          "name": "",
          "type": "string"
        },
        {
          "internalType": "uint256",
          "name": "",
          "type": "uint256"
        },
        {
          "internalType": "string",
          "name": "",
          "type": "string"
        },
        {
          "internalType": "uint256",
          "name": "",
          "type": "uint256"
        },
        {
          "internalType": "uint256",
          "name": "",
          "type": "uint256"
        },
        {
          "internalType": "uint256",
          "name": "",
          "type": "uint256"
        },
        {
          "internalType": "string",
          "name": "",
          "type": "string"
        }
      ],
      "payable": false,
      "stateMutability": "nonpayable",
      "type": "function"
    }
  ],
  "bytecode": "0x608060405234801561001057600080fd5b50612105806100206000396000f3fe608060405234801561001057600080fd5b506004361061009e5760003560e01c8063b1d5c99e11610066578063b1d5c99e1461018e578063bd14de96146101ac578063c0160e70146101e4578063de74e57b14610200578063e30a83da146102385761009e565b8063107a274a146100a357806345a541ea146100db5780634f9f6fe6146100f757806363a4c8861461012e578063a82ee2791461015e575b600080fd5b6100bd60048036036100b89190810190611b5c565b610256565b6040516100d299989796959493929190611d5c565b60405180910390f35b6100f560048036036100f091908101906118d8565b61063d565b005b610111600480360361010c9190810190611b5c565b6107ec565b604051610125989796959493929190611cad565b60405180910390f35b61014860048036036101439190810190611b5c565b610cfe565b6040516101559190611e0c565b60405180910390f35b61017860048036036101739190810190611b5c565b610d1f565b6040516101859190611e0c565b60405180910390f35b610196610d40565b6040516101a39190611c8b565b60405180910390f35b6101c660048036036101c19190810190611b5c565b610d98565b6040516101db99989796959493929190611e27565b60405180910390f35b6101fe60048036036101f99190810190611a32565b61120e565b005b61021a60048036036102159190810190611b5c565b611394565b60405161022f99989796959493929190611ee5565b60405180910390f35b6102406116da565b60405161024d9190611c8b565b60405180910390f35b6060806060600060606000806000606061026e611732565b6000808c81526020019081526020016000206040518061012001604052908160008201548152602001600182018054600181600116156101000203166002900480601f01602080910402602001604051908101604052809291908181526020018280546001816001161561010002031660029004801561032f5780601f106103045761010080835404028352916020019161032f565b820191906000526020600020905b81548152906001019060200180831161031257829003601f168201915b50505050508152602001600282018054600181600116156101000203166002900480601f0160208091040260200160405190810160405280929190818152602001828054600181600116156101000203166002900480156103d15780601f106103a6576101008083540402835291602001916103d1565b820191906000526020600020905b8154815290600101906020018083116103b457829003601f168201915b50505050508152602001600382018054600181600116156101000203166002900480601f0160208091040260200160405190810160405280929190818152602001828054600181600116156101000203166002900480156104735780601f1061044857610100808354040283529160200191610473565b820191906000526020600020905b81548152906001019060200180831161045657829003601f168201915b5050505050815260200160048201548152602001600582018054600181600116156101000203166002900480601f01602080910402602001604051908101604052809291908181526020018280546001816001161561010002031660029004801561051f5780601f106104f45761010080835404028352916020019161051f565b820191906000526020600020905b81548152906001019060200180831161050257829003601f168201915b505050505081526020016006820154815260200160078201548152602001600882018054600181600116156101000203166002900480601f0160208091040260200160405190810160405280929190818152602001828054600181600116156101000203166002900480156105d55780601f106105aa576101008083540402835291602001916105d5565b820191906000526020600020905b8154815290600101906020018083116105b857829003601f168201915b505050505081525050905080602001518160400151826060015183608001518460a001518560c001518660e001518760000151886101000151889850879750869650849450809050995099509950995099509950995099509950509193959799909294969850565b6000600460008154809291906001019190505590508060016000838152602001908152602001600020600001819055508760016000838152602001908152602001600020600101908051906020019061069792919061177e565b50886001600083815260200190815260200160002060020190805190602001906106c292919061177e565b50866001600083815260200190815260200160002060030190805190602001906106ed92919061177e565b508560016000838152602001908152602001600020600401908051906020019061071892919061177e565b508460016000838152602001908152602001600020600501908051906020019061074392919061177e565b508360016000838152602001908152602001600020600601908051906020019061076e92919061177e565b50826001600083815260200190815260200160002060070181905550816001600083815260200190815260200160002060080190805190602001906107b492919061177e565b506003819080600181540180825580915050906001820390600052602060002001600090919290919091505550505050505050505050565b606080606080606080600060606108016117fe565b600160008b81526020019081526020016000206040518061012001604052908160008201548152602001600182018054600181600116156101000203166002900480601f0160208091040260200160405190810160405280929190818152602001828054600181600116156101000203166002900480156108c35780601f10610898576101008083540402835291602001916108c3565b820191906000526020600020905b8154815290600101906020018083116108a657829003601f168201915b50505050508152602001600282018054600181600116156101000203166002900480601f0160208091040260200160405190810160405280929190818152602001828054600181600116156101000203166002900480156109655780601f1061093a57610100808354040283529160200191610965565b820191906000526020600020905b81548152906001019060200180831161094857829003601f168201915b50505050508152602001600382018054600181600116156101000203166002900480601f016020809104026020016040519081016040528092919081815260200182805460018160011615610100020316600290048015610a075780601f106109dc57610100808354040283529160200191610a07565b820191906000526020600020905b8154815290600101906020018083116109ea57829003601f168201915b50505050508152602001600482018054600181600116156101000203166002900480601f016020809104026020016040519081016040528092919081815260200182805460018160011615610100020316600290048015610aa95780601f10610a7e57610100808354040283529160200191610aa9565b820191906000526020600020905b815481529060010190602001808311610a8c57829003601f168201915b50505050508152602001600582018054600181600116156101000203166002900480601f016020809104026020016040519081016040528092919081815260200182805460018160011615610100020316600290048015610b4b5780601f10610b2057610100808354040283529160200191610b4b565b820191906000526020600020905b815481529060010190602001808311610b2e57829003601f168201915b50505050508152602001600682018054600181600116156101000203166002900480601f016020809104026020016040519081016040528092919081815260200182805460018160011615610100020316600290048015610bed5780601f10610bc257610100808354040283529160200191610bed565b820191906000526020600020905b815481529060010190602001808311610bd057829003601f168201915b5050505050815260200160078201548152602001600882018054600181600116156101000203166002900480601f016020809104026020016040519081016040528092919081815260200182805460018160011615610100020316600290048015610c995780601f10610c6e57610100808354040283529160200191610c99565b820191906000526020600020905b815481529060010190602001808311610c7c57829003601f168201915b505050505081525050905080602001518160400151826060015183608001518460a001518560c001518660e001518761010001518797508696508595508494508393508292508090509850985098509850985098509850985050919395975091939597565b60028181548110610d0b57fe5b906000526020600020016000915090505481565b60038181548110610d2c57fe5b906000526020600020016000915090505481565b60606002805480602002602001604051908101604052809291908181526020018280548015610d8e57602002820191906000526020600020905b815481526020019060010190808311610d7a575b5050505050905090565b6001602052806000526040600020600091509050806000015490806001018054600181600116156101000203166002900480601f016020809104026020016040519081016040528092919081815260200182805460018160011615610100020316600290048015610e4a5780601f10610e1f57610100808354040283529160200191610e4a565b820191906000526020600020905b815481529060010190602001808311610e2d57829003601f168201915b505050505090806002018054600181600116156101000203166002900480601f016020809104026020016040519081016040528092919081815260200182805460018160011615610100020316600290048015610ee85780601f10610ebd57610100808354040283529160200191610ee8565b820191906000526020600020905b815481529060010190602001808311610ecb57829003601f168201915b505050505090806003018054600181600116156101000203166002900480601f016020809104026020016040519081016040528092919081815260200182805460018160011615610100020316600290048015610f865780601f10610f5b57610100808354040283529160200191610f86565b820191906000526020600020905b815481529060010190602001808311610f6957829003601f168201915b505050505090806004018054600181600116156101000203166002900480601f0160208091040260200160405190810160405280929190818152602001828054600181600116156101000203166002900480156110245780601f10610ff957610100808354040283529160200191611024565b820191906000526020600020905b81548152906001019060200180831161100757829003601f168201915b505050505090806005018054600181600116156101000203166002900480601f0160208091040260200160405190810160405280929190818152602001828054600181600116156101000203166002900480156110c25780601f10611097576101008083540402835291602001916110c2565b820191906000526020600020905b8154815290600101906020018083116110a557829003601f168201915b505050505090806006018054600181600116156101000203166002900480601f0160208091040260200160405190810160405280929190818152602001828054600181600116156101000203166002900480156111605780601f1061113557610100808354040283529160200191611160565b820191906000526020600020905b81548152906001019060200180831161114357829003601f168201915b505050505090806007015490806008018054600181600116156101000203166002900480601f0160208091040260200160405190810160405280929190818152602001828054600181600116156101000203166002900480156112045780601f106111d957610100808354040283529160200191611204565b820191906000526020600020905b8154815290600101906020018083116111e757829003601f168201915b5050505050905089565b600060056000815480929190600101919050559050806000808381526020019081526020016000206000018190555088600080838152602001908152602001600020600101908051906020019061126692919061177e565b5087600080838152602001908152602001600020600201908051906020019061129092919061177e565b508660008083815260200190815260200160002060030190805190602001906112ba92919061177e565b5085600080838152602001908152602001600020600401819055508460008083815260200190815260200160002060050190805190602001906112fe92919061177e565b508360008083815260200190815260200160002060060181905550826000808381526020019081526020016000206007018190555081600080838152602001908152602001600020600801908051906020019061135c92919061177e565b506002819080600181540180825580915050906001820390600052602060002001600090919290919091505550505050505050505050565b6000602052806000526040600020600091509050806000015490806001018054600181600116156101000203166002900480601f0160208091040260200160405190810160405280929190818152602001828054600181600116156101000203166002900480156114465780601f1061141b57610100808354040283529160200191611446565b820191906000526020600020905b81548152906001019060200180831161142957829003601f168201915b505050505090806002018054600181600116156101000203166002900480601f0160208091040260200160405190810160405280929190818152602001828054600181600116156101000203166002900480156114e45780601f106114b9576101008083540402835291602001916114e4565b820191906000526020600020905b8154815290600101906020018083116114c757829003601f168201915b505050505090806003018054600181600116156101000203166002900480601f0160208091040260200160405190810160405280929190818152602001828054600181600116156101000203166002900480156115825780601f1061155757610100808354040283529160200191611582565b820191906000526020600020905b81548152906001019060200180831161156557829003601f168201915b505050505090806004015490806005018054600181600116156101000203166002900480601f0160208091040260200160405190810160405280929190818152602001828054600181600116156101000203166002900480156116265780601f106115fb57610100808354040283529160200191611626565b820191906000526020600020905b81548152906001019060200180831161160957829003601f168201915b505050505090806006015490806007015490806008018054600181600116156101000203166002900480601f0160208091040260200160405190810160405280929190818152602001828054600181600116156101000203166002900480156116d05780601f106116a5576101008083540402835291602001916116d0565b820191906000526020600020905b8154815290600101906020018083116116b357829003601f168201915b5050505050905089565b6060600380548060200260200160405190810160405280929190818152602001828054801561172857602002820191906000526020600020905b815481526020019060010190808311611714575b5050505050905090565b6040518061012001604052806000815260200160608152602001606081526020016060815260200160008152602001606081526020016000815260200160008152602001606081525090565b828054600181600116156101000203166002900490600052602060002090601f016020900481019282601f106117bf57805160ff19168380011785556117ed565b828001600101855582156117ed579182015b828111156117ec5782518255916020019190600101906117d1565b5b5090506117fa919061184a565b5090565b6040518061012001604052806000815260200160608152602001606081526020016060815260200160608152602001606081526020016060815260200160008152602001606081525090565b61186c91905b80821115611868576000816000905550600101611850565b5090565b90565b600082601f83011261188057600080fd5b813561189361188e82611fc2565b611f95565b915080825260208301602083018583830111156118af57600080fd5b6118ba838284612058565b50505092915050565b6000813590506118d2816120ab565b92915050565b600080600080600080600080610100898b0312156118f557600080fd5b600089013567ffffffffffffffff81111561190f57600080fd5b61191b8b828c0161186f565b985050602089013567ffffffffffffffff81111561193857600080fd5b6119448b828c0161186f565b975050604089013567ffffffffffffffff81111561196157600080fd5b61196d8b828c0161186f565b965050606089013567ffffffffffffffff81111561198a57600080fd5b6119968b828c0161186f565b955050608089013567ffffffffffffffff8111156119b357600080fd5b6119bf8b828c0161186f565b94505060a089013567ffffffffffffffff8111156119dc57600080fd5b6119e88b828c0161186f565b93505060c06119f98b828c016118c3565b92505060e089013567ffffffffffffffff811115611a1657600080fd5b611a228b828c0161186f565b9150509295985092959890939650565b600080600080600080600080610100898b031215611a4f57600080fd5b600089013567ffffffffffffffff811115611a6957600080fd5b611a758b828c0161186f565b985050602089013567ffffffffffffffff811115611a9257600080fd5b611a9e8b828c0161186f565b975050604089013567ffffffffffffffff811115611abb57600080fd5b611ac78b828c0161186f565b9650506060611ad88b828c016118c3565b955050608089013567ffffffffffffffff811115611af557600080fd5b611b018b828c0161186f565b94505060a0611b128b828c016118c3565b93505060c0611b238b828c016118c3565b92505060e089013567ffffffffffffffff811115611b4057600080fd5b611b4c8b828c0161186f565b9150509295985092959890939650565b600060208284031215611b6e57600080fd5b6000611b7c848285016118c3565b91505092915050565b6000611b918383611c6d565b60208301905092915050565b6000611ba882611ffe565b611bb2818561202c565b9350611bbd83611fee565b8060005b83811015611bee578151611bd58882611b85565b9750611be08361201f565b925050600181019050611bc1565b5085935050505092915050565b6000611c0682612014565b611c10818561203d565b9350611c20818560208601612067565b611c298161209a565b840191505092915050565b6000611c3f82612009565b611c49818561203d565b9350611c59818560208601612067565b611c628161209a565b840191505092915050565b611c768161204e565b82525050565b611c858161204e565b82525050565b60006020820190508181036000830152611ca58184611b9d565b905092915050565b6000610100820190508181036000830152611cc8818b611bfb565b90508181036020830152611cdc818a611bfb565b90508181036040830152611cf08189611bfb565b90508181036060830152611d048188611bfb565b90508181036080830152611d188187611bfb565b905081810360a0830152611d2c8186611bfb565b9050611d3b60c0830185611c7c565b81810360e0830152611d4d8184611bfb565b90509998505050505050505050565b6000610120820190508181036000830152611d77818c611bfb565b90508181036020830152611d8b818b611bfb565b90508181036040830152611d9f818a611bfb565b9050611dae6060830189611c7c565b8181036080830152611dc08188611bfb565b9050611dcf60a0830187611c7c565b611ddc60c0830186611c7c565b611de960e0830185611c7c565b818103610100830152611dfc8184611bfb565b90509a9950505050505050505050565b6000602082019050611e216000830184611c7c565b92915050565b600061012082019050611e3d600083018c611c7c565b8181036020830152611e4f818b611c34565b90508181036040830152611e63818a611c34565b90508181036060830152611e778189611c34565b90508181036080830152611e8b8188611c34565b905081810360a0830152611e9f8187611c34565b905081810360c0830152611eb38186611c34565b9050611ec260e0830185611c7c565b818103610100830152611ed58184611c34565b90509a9950505050505050505050565b600061012082019050611efb600083018c611c7c565b8181036020830152611f0d818b611c34565b90508181036040830152611f21818a611c34565b90508181036060830152611f358189611c34565b9050611f446080830188611c7c565b81810360a0830152611f568187611c34565b9050611f6560c0830186611c7c565b611f7260e0830185611c7c565b818103610100830152611f858184611c34565b90509a9950505050505050505050565b6000604051905081810181811067ffffffffffffffff82111715611fb857600080fd5b8060405250919050565b600067ffffffffffffffff821115611fd957600080fd5b601f19601f8301169050602081019050919050565b6000819050602082019050919050565b600081519050919050565b600081519050919050565b600081519050919050565b6000602082019050919050565b600082825260208201905092915050565b600082825260208201905092915050565b6000819050919050565b82818337600083830152505050565b60005b8381101561208557808201518184015260208101905061206a565b83811115612094576000848401525b50505050565b6000601f19601f8301169050919050565b6120b48161204e565b81146120bf57600080fd5b5056fea365627a7a72315820862d0edf95efe36a438f0ecaf5e8092dc2fad81d557839a2724c459b0c0513496c6578706572696d656e74616cf564736f6c63430005100040",
  "source": "pragma solidity ^0.5.0;\npragma experimental ABIEncoderV2;\n\ncontract CreateListing {\n\n  \n\tstruct Listing {\n        uint id; \n\t    string name;\n        string addr;\n        string county;\n        uint price;\n        string description;\n        uint numBed;\n        uint numBath;\n        string landlordId;\n        \n\t}\n\n    struct Agreement {\n        uint id;\n        string landlord;\n        string tenant;\n        string title;\n        string addr;\n        string start;\n        string end;\n        uint rent;\n        string todayDate;\n    }\n\n\n\tmapping(uint => Listing) public listings;\t\n    mapping(uint => Agreement) public agreements;\n\t\n    uint[] public listingIndexes;\n    uint[] public agreementIndexes;\n    uint agreementCounter;\n\tuint listingCounter;\n\t\n    function addListing(string memory name_form, string memory address_form, string memory county_form, uint price_form,  string memory description_form, uint numBed_form, uint numBath_form, string memory landlordId_form) public {\n        uint listingId = listingCounter++;\n        listings[listingId].id = listingId;\n        listings[listingId].name = name_form;\n        listings[listingId].addr = address_form;\n        listings[listingId].county = county_form;\n        listings[listingId].price = price_form;\n        listings[listingId].description = description_form;\n        listings[listingId].numBed = numBed_form;\n        listings[listingId].numBath = numBath_form;\n        listings[listingId].landlordId = landlordId_form;\n       \n\n       listingIndexes.push(listingId);\n        \n    }\n\n    function addAgreement(string memory tenant_form, string memory landlord_form, string memory title_form, string memory address_form, string memory start_form, string memory end_form, uint rent_form, string memory date_form) public {\n        uint agreementId = agreementCounter++;\n\n        agreements[agreementId].id = agreementId;\n        agreements[agreementId].landlord = landlord_form;\n        agreements[agreementId].tenant = tenant_form;\n        agreements[agreementId].title  = title_form;\n        agreements[agreementId].addr = address_form;\n        agreements[agreementId].start = start_form;\n        agreements[agreementId].end = end_form;\n        agreements[agreementId].rent = rent_form;\n        agreements[agreementId].todayDate = date_form;\n\n        agreementIndexes.push(agreementId);\n    }\n\n   function getAgreementIndexes() public returns (uint[] memory) {\n       return agreementIndexes;\n   }\n\t\n\tfunction getListingIndexes() public returns (uint[] memory) {\n\t\treturn listingIndexes;\n\t}\n\t\n    function getAgreement(uint index) public returns (string memory, string memory, string memory, string memory, string memory, string memory, uint, string memory) {\n        Agreement memory agree = agreements[index];\n\n        return (agree.landlord, agree.tenant, agree.title, agree.addr, agree.start, agree.end, agree.rent, agree.todayDate);\n    }\n\n\tfunction getListing(uint index) public returns (string memory, string memory, string memory, uint, string memory, uint, uint, uint, string memory) {\n \t\tListing memory house = listings[index];\t\t\n\t\n\t\treturn (house.name, house.addr, house.county, house.price,house.description, house.numBed, house.numBath, house.id, house.landlordId);\n\t}\n\n\n\t\n}\t\n",
  "sourcePath": "/Users/emmakenny/FYP-blockchain/blockchain-ek/contracts/CreateListing.sol",
  "compiler": {
    "name": "solc",
    "version": "0.5.16+commit.9c3226ce.Emscripten.clang"
  },
  "schemaVersion": "3.0.23",
  "updatedAt": "2020-03-05T19:11:59.300Z",
  "networkType": "ethereum",
  "devdoc": {
    "methods": {}
  },
  "userdoc": {
    "methods": {}
  }
}