{
  "contractName": "CreateListing",
  "abi": [
    {
      "constant": true,
      "inputs": [
        {
          "internalType": "uint256",
          "name": "",
          "type": "uint256"
        }
      ],
      "name": "listingIndexes",
      "outputs": [
        {
          "internalType": "uint256",
          "name": "",
          "type": "uint256"
        }
      ],
      "payable": false,
      "stateMutability": "view",
      "type": "function"
    },
    {
      "constant": true,
      "inputs": [
        {
          "internalType": "uint256",
          "name": "",
          "type": "uint256"
        }
      ],
      "name": "listings",
      "outputs": [
        {
          "internalType": "uint256",
          "name": "id",
          "type": "uint256"
        },
        {
          "internalType": "string",
          "name": "name",
          "type": "string"
        },
        {
          "internalType": "string",
          "name": "addr",
          "type": "string"
        },
        {
          "internalType": "uint256",
          "name": "price",
          "type": "uint256"
        },
        {
          "internalType": "uint256",
          "name": "deposit",
          "type": "uint256"
        },
        {
          "internalType": "string",
          "name": "description",
          "type": "string"
        },
        {
          "internalType": "uint256",
          "name": "numBed",
          "type": "uint256"
        },
        {
          "internalType": "uint256",
          "name": "numBath",
          "type": "uint256"
        }
      ],
      "payable": false,
      "stateMutability": "view",
      "type": "function"
    },
    {
      "constant": false,
      "inputs": [
        {
          "internalType": "string",
          "name": "name_form",
          "type": "string"
        },
        {
          "internalType": "string",
          "name": "address_form",
          "type": "string"
        },
        {
          "internalType": "uint256",
          "name": "price_form",
          "type": "uint256"
        },
        {
          "internalType": "uint256",
          "name": "deposit_form",
          "type": "uint256"
        },
        {
          "internalType": "string",
          "name": "description_form",
          "type": "string"
        },
        {
          "internalType": "uint256",
          "name": "numBed_form",
          "type": "uint256"
        },
        {
          "internalType": "uint256",
          "name": "numBath_form",
          "type": "uint256"
        }
      ],
      "name": "addListing",
      "outputs": [
        {
          "internalType": "string",
          "name": "",
          "type": "string"
        }
      ],
      "payable": false,
      "stateMutability": "nonpayable",
      "type": "function"
    },
    {
      "constant": false,
      "inputs": [],
      "name": "getListingIndexes",
      "outputs": [
        {
          "internalType": "uint256[]",
          "name": "",
          "type": "uint256[]"
        }
      ],
      "payable": false,
      "stateMutability": "nonpayable",
      "type": "function"
    },
    {
      "constant": false,
      "inputs": [
        {
          "internalType": "uint256",
          "name": "index",
          "type": "uint256"
        }
      ],
      "name": "getListing",
      "outputs": [
        {
          "internalType": "string",
          "name": "",
          "type": "string"
        },
        {
          "internalType": "string",
          "name": "",
          "type": "string"
        },
        {
          "internalType": "uint256",
          "name": "",
          "type": "uint256"
        },
        {
          "internalType": "uint256",
          "name": "",
          "type": "uint256"
        },
        {
          "internalType": "string",
          "name": "",
          "type": "string"
        },
        {
          "internalType": "uint256",
          "name": "",
          "type": "uint256"
        },
        {
          "internalType": "uint256",
          "name": "",
          "type": "uint256"
        }
      ],
      "payable": false,
      "stateMutability": "nonpayable",
      "type": "function"
    }
  ],
  "bytecode": "0x608060405234801561001057600080fd5b50610ecf806100206000396000f3fe608060405234801561001057600080fd5b50600436106100575760003560e01c8063107a274a1461005c5780634ba15c8e1461009257806363a4c886146100c2578063b1d5c99e146100f2578063de74e57b14610110575b600080fd5b61007660048036036100719190810190610aba565b610147565b6040516100899796959493929190610c2d565b60405180910390f35b6100ac60048036036100a791908101906109d4565b6103f9565b6040516100b99190610c0b565b60405180910390f35b6100dc60048036036100d79190810190610aba565b6105f8565b6040516100e99190610cb1565b60405180910390f35b6100fa610619565b6040516101079190610be9565b60405180910390f35b61012a60048036036101259190810190610aba565b610671565b60405161013e989796959493929190610ccc565b60405180910390f35b606080600080606060008061015a610881565b6000808a81526020019081526020016000206040518061010001604052908160008201548152602001600182018054600181600116156101000203166002900480601f01602080910402602001604051908101604052809291908181526020018280546001816001161561010002031660029004801561021b5780601f106101f05761010080835404028352916020019161021b565b820191906000526020600020905b8154815290600101906020018083116101fe57829003601f168201915b50505050508152602001600282018054600181600116156101000203166002900480601f0160208091040260200160405190810160405280929190818152602001828054600181600116156101000203166002900480156102bd5780601f10610292576101008083540402835291602001916102bd565b820191906000526020600020905b8154815290600101906020018083116102a057829003601f168201915b505050505081526020016003820154815260200160048201548152602001600582018054600181600116156101000203166002900480601f0160208091040260200160405190810160405280929190818152602001828054600181600116156101000203166002900480156103735780601f1061034857610100808354040283529160200191610373565b820191906000526020600020905b81548152906001019060200180831161035657829003601f168201915b5050505050815260200160068201548152602001600782015481525050905060608160200151905060608260400151905060008360600151905060008460800151905060608560a00151905060008660c00151905060008760e001519050868686868686869e509e509e509e509e509e509e505050505050505050919395979092949650565b606060006002600081548092919060010191905055905080600080838152602001908152602001600020600001819055508860008083815260200190815260200160002060010190805190602001906104539291906108c6565b5087600080838152602001908152602001600020600201908051906020019061047d9291906108c6565b50866000808381526020019081526020016000206003018190555085600080838152602001908152602001600020600401819055508460008083815260200190815260200160002060050190805190602001906104db9291906108c6565b508360008083815260200190815260200160002060060181905550826000808381526020019081526020016000206007018190555060018190806001815401808255809150509060018203906000526020600020016000909192909190915055506000808281526020019081526020016000206001018054600181600116156101000203166002900480601f0160208091040260200160405190810160405280929190818152602001828054600181600116156101000203166002900480156105e55780601f106105ba576101008083540402835291602001916105e5565b820191906000526020600020905b8154815290600101906020018083116105c857829003601f168201915b5050505050915050979650505050505050565b6001818154811061060557fe5b906000526020600020016000915090505481565b6060600180548060200260200160405190810160405280929190818152602001828054801561066757602002820191906000526020600020905b815481526020019060010190808311610653575b5050505050905090565b6000602052806000526040600020600091509050806000015490806001018054600181600116156101000203166002900480601f0160208091040260200160405190810160405280929190818152602001828054600181600116156101000203166002900480156107235780601f106106f857610100808354040283529160200191610723565b820191906000526020600020905b81548152906001019060200180831161070657829003601f168201915b505050505090806002018054600181600116156101000203166002900480601f0160208091040260200160405190810160405280929190818152602001828054600181600116156101000203166002900480156107c15780601f10610796576101008083540402835291602001916107c1565b820191906000526020600020905b8154815290600101906020018083116107a457829003601f168201915b505050505090806003015490806004015490806005018054600181600116156101000203166002900480601f01602080910402602001604051908101604052809291908181526020018280546001816001161561010002031660029004801561086b5780601f106108405761010080835404028352916020019161086b565b820191906000526020600020905b81548152906001019060200180831161084e57829003601f168201915b5050505050908060060154908060070154905088565b60405180610100016040528060008152602001606081526020016060815260200160008152602001600081526020016060815260200160008152602001600081525090565b828054600181600116156101000203166002900490600052602060002090601f016020900481019282601f1061090757805160ff1916838001178555610935565b82800160010185558215610935579182015b82811115610934578251825591602001919060010190610919565b5b5090506109429190610946565b5090565b61096891905b8082111561096457600081600090555060010161094c565b5090565b90565b600082601f83011261097c57600080fd5b813561098f61098a82610d8c565b610d5f565b915080825260208301602083018583830111156109ab57600080fd5b6109b6838284610e22565b50505092915050565b6000813590506109ce81610e75565b92915050565b600080600080600080600060e0888a0312156109ef57600080fd5b600088013567ffffffffffffffff811115610a0957600080fd5b610a158a828b0161096b565b975050602088013567ffffffffffffffff811115610a3257600080fd5b610a3e8a828b0161096b565b9650506040610a4f8a828b016109bf565b9550506060610a608a828b016109bf565b945050608088013567ffffffffffffffff811115610a7d57600080fd5b610a898a828b0161096b565b93505060a0610a9a8a828b016109bf565b92505060c0610aab8a828b016109bf565b91505092959891949750929550565b600060208284031215610acc57600080fd5b6000610ada848285016109bf565b91505092915050565b6000610aef8383610bcb565b60208301905092915050565b6000610b0682610dc8565b610b108185610df6565b9350610b1b83610db8565b8060005b83811015610b4c578151610b338882610ae3565b9750610b3e83610de9565b925050600181019050610b1f565b5085935050505092915050565b6000610b6482610dde565b610b6e8185610e07565b9350610b7e818560208601610e31565b610b8781610e64565b840191505092915050565b6000610b9d82610dd3565b610ba78185610e07565b9350610bb7818560208601610e31565b610bc081610e64565b840191505092915050565b610bd481610e18565b82525050565b610be381610e18565b82525050565b60006020820190508181036000830152610c038184610afb565b905092915050565b60006020820190508181036000830152610c258184610b59565b905092915050565b600060e0820190508181036000830152610c47818a610b59565b90508181036020830152610c5b8189610b59565b9050610c6a6040830188610bda565b610c776060830187610bda565b8181036080830152610c898186610b59565b9050610c9860a0830185610bda565b610ca560c0830184610bda565b98975050505050505050565b6000602082019050610cc66000830184610bda565b92915050565b600061010082019050610ce2600083018b610bda565b8181036020830152610cf4818a610b92565b90508181036040830152610d088189610b92565b9050610d176060830188610bda565b610d246080830187610bda565b81810360a0830152610d368186610b92565b9050610d4560c0830185610bda565b610d5260e0830184610bda565b9998505050505050505050565b6000604051905081810181811067ffffffffffffffff82111715610d8257600080fd5b8060405250919050565b600067ffffffffffffffff821115610da357600080fd5b601f19601f8301169050602081019050919050565b6000819050602082019050919050565b600081519050919050565b600081519050919050565b600081519050919050565b6000602082019050919050565b600082825260208201905092915050565b600082825260208201905092915050565b6000819050919050565b82818337600083830152505050565b60005b83811015610e4f578082015181840152602081019050610e34565b83811115610e5e576000848401525b50505050565b6000601f19601f8301169050919050565b610e7e81610e18565b8114610e8957600080fd5b5056fea365627a7a72315820bc63770b0fbbddeb92b406c548bd0750c99abafccdfcd67a45f4964973651ae66c6578706572696d656e74616cf564736f6c63430005100040",
  "source": "pragma solidity ^0.5.0;\npragma experimental ABIEncoderV2;\n\ncontract CreateListing {\n\n\tstruct Listing {\n        uint id; \n\t    string name;\n        string addr;\n        uint price;\n        uint deposit;\n        string description;\n        uint numBed;\n        uint numBath;\n        //string photo;\n\t}\n\n\n\tmapping(uint => Listing) public listings;\t\n\t\n    uint[] public listingIndexes;\n\tuint listingCounter;\n\t\n    function addListing(string memory name_form, string memory address_form, uint price_form, uint deposit_form, string memory description_form, uint numBed_form, uint numBath_form) public returns (string memory) {\n        uint listingId = listingCounter++;\n        listings[listingId].id = listingId;\n        listings[listingId].name = name_form;\n        listings[listingId].addr = address_form;\n        listings[listingId].price = price_form;\n        listings[listingId].deposit = deposit_form;\n        listings[listingId].description = description_form;\n        listings[listingId].numBed = numBed_form;\n        listings[listingId].numBath = numBath_form;\n        //listing[listingId].photo = photo_form;\n\n        listingIndexes.push(listingId);\n\n        return listings[listingId].name;\n    }\n\t\n\tfunction getListingIndexes() public returns (uint[] memory) {\n\t\treturn listingIndexes;\n\t}\n\t\n\t\n\tfunction getListing(uint index) public returns (string memory, string memory, uint, uint, string memory, uint, uint) {\n \t\tListing memory house = listings[index];\t\t\n\t\tstring memory name_ret = house.name;\n\t\tstring memory address_ret = house.addr;\n       \n        uint price_ret = house.price;\n        uint deposit_ret = house.deposit;\n        string memory description_ret = house.description;\n        uint numBed_ret = house.numBed;\n        uint numBath_ret = house.numBath;\n        //string memory photo_ret = house.photo;\n\n\t\treturn (name_ret, address_ret,  price_ret, deposit_ret, description_ret, numBed_ret, numBath_ret);\n\t}\n\n\n\t\n}\t\n",
  "sourcePath": "/Users/emmakenny/FYP-blockchain/blockchain-ek/contracts/CreateListing.sol",
  "compiler": {
    "name": "solc",
    "version": "0.5.16+commit.9c3226ce.Emscripten.clang"
  },
  "schemaVersion": "3.0.21",
  "updatedAt": "2020-01-25T14:50:30.140Z",
  "networkType": "ethereum",
  "devdoc": {
    "methods": {}
  },
  "userdoc": {
    "methods": {}
  }
}