{
  "contractName": "CreateListing",
  "abi": [
    {
      "constant": true,
      "inputs": [
        {
          "internalType": "uint256",
          "name": "",
          "type": "uint256"
        }
      ],
      "name": "agreementIndexes",
      "outputs": [
        {
          "internalType": "uint256",
          "name": "",
          "type": "uint256"
        }
      ],
      "payable": false,
      "stateMutability": "view",
      "type": "function"
    },
    {
      "constant": true,
      "inputs": [
        {
          "internalType": "uint256",
          "name": "",
          "type": "uint256"
        }
      ],
      "name": "agreements",
      "outputs": [
        {
          "internalType": "uint256",
          "name": "id",
          "type": "uint256"
        },
        {
          "internalType": "string",
          "name": "landlord",
          "type": "string"
        },
        {
          "internalType": "string",
          "name": "landEmail",
          "type": "string"
        },
        {
          "internalType": "string",
          "name": "tenant",
          "type": "string"
        },
        {
          "internalType": "string",
          "name": "tenantEmail",
          "type": "string"
        },
        {
          "internalType": "string",
          "name": "addr",
          "type": "string"
        },
        {
          "internalType": "string",
          "name": "start",
          "type": "string"
        },
        {
          "internalType": "string",
          "name": "end",
          "type": "string"
        },
        {
          "internalType": "uint256",
          "name": "rent",
          "type": "uint256"
        },
        {
          "internalType": "uint256",
          "name": "deposit",
          "type": "uint256"
        },
        {
          "internalType": "string",
          "name": "todayDate",
          "type": "string"
        },
        {
          "internalType": "bool",
          "name": "signed",
          "type": "bool"
        }
      ],
      "payable": false,
      "stateMutability": "view",
      "type": "function"
    },
    {
      "constant": true,
      "inputs": [
        {
          "internalType": "uint256",
          "name": "",
          "type": "uint256"
        }
      ],
      "name": "listingIndexes",
      "outputs": [
        {
          "internalType": "uint256",
          "name": "",
          "type": "uint256"
        }
      ],
      "payable": false,
      "stateMutability": "view",
      "type": "function"
    },
    {
      "constant": true,
      "inputs": [
        {
          "internalType": "uint256",
          "name": "",
          "type": "uint256"
        }
      ],
      "name": "listings",
      "outputs": [
        {
          "internalType": "uint256",
          "name": "id",
          "type": "uint256"
        },
        {
          "internalType": "string",
          "name": "name",
          "type": "string"
        },
        {
          "internalType": "string",
          "name": "addr",
          "type": "string"
        },
        {
          "internalType": "string",
          "name": "county",
          "type": "string"
        },
        {
          "internalType": "uint256",
          "name": "price",
          "type": "uint256"
        },
        {
          "internalType": "uint256",
          "name": "deposit",
          "type": "uint256"
        },
        {
          "internalType": "string",
          "name": "description",
          "type": "string"
        },
        {
          "internalType": "uint256",
          "name": "numBed",
          "type": "uint256"
        },
        {
          "internalType": "uint256",
          "name": "numBath",
          "type": "uint256"
        },
        {
          "internalType": "string",
          "name": "landlordId",
          "type": "string"
        }
      ],
      "payable": false,
      "stateMutability": "view",
      "type": "function"
    },
    {
      "constant": false,
      "inputs": [
        {
          "internalType": "string",
          "name": "name_form",
          "type": "string"
        },
        {
          "internalType": "string",
          "name": "address_form",
          "type": "string"
        },
        {
          "internalType": "string",
          "name": "county_form",
          "type": "string"
        },
        {
          "internalType": "uint256",
          "name": "price_form",
          "type": "uint256"
        },
        {
          "internalType": "uint256",
          "name": "deposit_form",
          "type": "uint256"
        },
        {
          "internalType": "string",
          "name": "description_form",
          "type": "string"
        },
        {
          "internalType": "uint256",
          "name": "numBed_form",
          "type": "uint256"
        },
        {
          "internalType": "uint256",
          "name": "numBath_form",
          "type": "uint256"
        },
        {
          "internalType": "string",
          "name": "landlordId_form",
          "type": "string"
        }
      ],
      "name": "addListing",
      "outputs": [],
      "payable": false,
      "stateMutability": "nonpayable",
      "type": "function"
    },
    {
      "constant": false,
      "inputs": [
        {
          "internalType": "string",
          "name": "tenant_form",
          "type": "string"
        },
        {
          "internalType": "string",
          "name": "tenantEmail_form",
          "type": "string"
        },
        {
          "internalType": "string",
          "name": "landlord_form",
          "type": "string"
        },
        {
          "internalType": "string",
          "name": "landEmail_form",
          "type": "string"
        },
        {
          "internalType": "string",
          "name": "address_form",
          "type": "string"
        },
        {
          "internalType": "string",
          "name": "start_form",
          "type": "string"
        },
        {
          "internalType": "string",
          "name": "end_form",
          "type": "string"
        },
        {
          "internalType": "uint256",
          "name": "rent_form",
          "type": "uint256"
        },
        {
          "internalType": "uint256",
          "name": "deposit_form",
          "type": "uint256"
        },
        {
          "internalType": "string",
          "name": "date_form",
          "type": "string"
        }
      ],
      "name": "addAgreement",
      "outputs": [],
      "payable": false,
      "stateMutability": "nonpayable",
      "type": "function"
    },
    {
      "constant": false,
      "inputs": [],
      "name": "getAgreementIndexes",
      "outputs": [
        {
          "internalType": "uint256[]",
          "name": "",
          "type": "uint256[]"
        }
      ],
      "payable": false,
      "stateMutability": "nonpayable",
      "type": "function"
    },
    {
      "constant": false,
      "inputs": [
        {
          "internalType": "uint256",
          "name": "index",
          "type": "uint256"
        }
      ],
      "name": "getAgreement",
      "outputs": [
        {
          "internalType": "uint256",
          "name": "",
          "type": "uint256"
        },
        {
          "internalType": "string",
          "name": "",
          "type": "string"
        },
        {
          "internalType": "string",
          "name": "",
          "type": "string"
        },
        {
          "internalType": "string",
          "name": "",
          "type": "string"
        },
        {
          "internalType": "string",
          "name": "",
          "type": "string"
        },
        {
          "internalType": "string",
          "name": "",
          "type": "string"
        },
        {
          "internalType": "string",
          "name": "",
          "type": "string"
        },
        {
          "internalType": "string",
          "name": "",
          "type": "string"
        },
        {
          "internalType": "uint256",
          "name": "",
          "type": "uint256"
        },
        {
          "internalType": "uint256",
          "name": "",
          "type": "uint256"
        },
        {
          "internalType": "string",
          "name": "",
          "type": "string"
        },
        {
          "internalType": "bool",
          "name": "",
          "type": "bool"
        }
      ],
      "payable": false,
      "stateMutability": "nonpayable",
      "type": "function"
    },
    {
      "constant": false,
      "inputs": [],
      "name": "getListingIndexes",
      "outputs": [
        {
          "internalType": "uint256[]",
          "name": "",
          "type": "uint256[]"
        }
      ],
      "payable": false,
      "stateMutability": "nonpayable",
      "type": "function"
    },
    {
      "constant": false,
      "inputs": [
        {
          "internalType": "uint256",
          "name": "index",
          "type": "uint256"
        }
      ],
      "name": "getListing",
      "outputs": [
        {
          "internalType": "string",
          "name": "",
          "type": "string"
        },
        {
          "internalType": "string",
          "name": "",
          "type": "string"
        },
        {
          "internalType": "string",
          "name": "",
          "type": "string"
        },
        {
          "internalType": "uint256",
          "name": "",
          "type": "uint256"
        },
        {
          "internalType": "uint256",
          "name": "",
          "type": "uint256"
        },
        {
          "internalType": "string",
          "name": "",
          "type": "string"
        },
        {
          "internalType": "uint256",
          "name": "",
          "type": "uint256"
        },
        {
          "internalType": "uint256",
          "name": "",
          "type": "uint256"
        },
        {
          "internalType": "uint256",
          "name": "",
          "type": "uint256"
        },
        {
          "internalType": "string",
          "name": "",
          "type": "string"
        }
      ],
      "payable": false,
      "stateMutability": "nonpayable",
      "type": "function"
    },
    {
      "constant": false,
      "inputs": [
        {
          "internalType": "uint256",
          "name": "index",
          "type": "uint256"
        }
      ],
      "name": "signAgreement",
      "outputs": [],
      "payable": false,
      "stateMutability": "nonpayable",
      "type": "function"
    }
  ],
  "bytecode": "0x608060405234801561001057600080fd5b506124b0806100206000396000f3fe608060405234801561001057600080fd5b50600436106100a95760003560e01c8063b1d5c99e11610071578063b1d5c99e1461019e578063ba0e0225146101bc578063bd14de96146101d8578063de74e57b14610213578063e30a83da1461024c578063eb99fdf61461026a576100a9565b806303742de0146100ae578063107a274a146100ca5780634f9f6fe61461010357806363a4c8861461013e578063a82ee2791461016e575b600080fd5b6100c860048036036100c39190810190611e57565b610286565b005b6100e460048036036100df9190810190611e57565b6102b7565b6040516100fa9a99989796959493929190611fb7565b60405180910390f35b61011d60048036036101189190810190611e57565b6106b1565b6040516101359c9b9a99989796959493929190612091565b60405180910390f35b61015860048036036101539190810190611e57565b610cb7565b6040516101659190612076565b60405180910390f35b61018860048036036101839190810190611e57565b610cd8565b6040516101959190612076565b60405180910390f35b6101a6610cf9565b6040516101b39190611f95565b60405180910390f35b6101d660048036036101d19190810190611b7e565b610d51565b005b6101f260048036036101ed9190810190611e57565b610f48565b60405161020a9c9b9a99989796959493929190612183565b60405180910390f35b61022d60048036036102289190810190611e57565b611475565b6040516102439a99989796959493929190612275565b60405180910390f35b6102546117c1565b6040516102619190611f95565b60405180910390f35b610284600480360361027f9190810190611d19565b611819565b005b6001806000838152602001908152602001600020600b0160006101000a81548160ff02191690831515021790555050565b60608060606000806060600080600060606102d06119ba565b6000808d81526020019081526020016000206040518061014001604052908160008201548152602001600182018054600181600116156101000203166002900480601f0160208091040260200160405190810160405280929190818152602001828054600181600116156101000203166002900480156103915780601f1061036657610100808354040283529160200191610391565b820191906000526020600020905b81548152906001019060200180831161037457829003601f168201915b50505050508152602001600282018054600181600116156101000203166002900480601f0160208091040260200160405190810160405280929190818152602001828054600181600116156101000203166002900480156104335780601f1061040857610100808354040283529160200191610433565b820191906000526020600020905b81548152906001019060200180831161041657829003601f168201915b50505050508152602001600382018054600181600116156101000203166002900480601f0160208091040260200160405190810160405280929190818152602001828054600181600116156101000203166002900480156104d55780601f106104aa576101008083540402835291602001916104d5565b820191906000526020600020905b8154815290600101906020018083116104b857829003601f168201915b505050505081526020016004820154815260200160058201548152602001600682018054600181600116156101000203166002900480601f01602080910402602001604051908101604052809291908181526020018280546001816001161561010002031660029004801561058b5780601f106105605761010080835404028352916020019161058b565b820191906000526020600020905b81548152906001019060200180831161056e57829003601f168201915b505050505081526020016007820154815260200160088201548152602001600982018054600181600116156101000203166002900480601f0160208091040260200160405190810160405280929190818152602001828054600181600116156101000203166002900480156106415780601f1061061657610100808354040283529160200191610641565b820191906000526020600020905b81548152906001019060200180831161062457829003601f168201915b505050505081525050905080602001518160400151826060015183608001518460a001518560c001518660e0015187610100015188600001518961012001518999508898508797508494508090509a509a509a509a509a509a509a509a509a509a50509193959799509193959799565b60006060806060806060806060600080606060006106cd611a0d565b600160008f81526020019081526020016000206040518061018001604052908160008201548152602001600182018054600181600116156101000203166002900480601f01602080910402602001604051908101604052809291908181526020018280546001816001161561010002031660029004801561078f5780601f106107645761010080835404028352916020019161078f565b820191906000526020600020905b81548152906001019060200180831161077257829003601f168201915b50505050508152602001600282018054600181600116156101000203166002900480601f0160208091040260200160405190810160405280929190818152602001828054600181600116156101000203166002900480156108315780601f1061080657610100808354040283529160200191610831565b820191906000526020600020905b81548152906001019060200180831161081457829003601f168201915b50505050508152602001600382018054600181600116156101000203166002900480601f0160208091040260200160405190810160405280929190818152602001828054600181600116156101000203166002900480156108d35780601f106108a8576101008083540402835291602001916108d3565b820191906000526020600020905b8154815290600101906020018083116108b657829003601f168201915b50505050508152602001600482018054600181600116156101000203166002900480601f0160208091040260200160405190810160405280929190818152602001828054600181600116156101000203166002900480156109755780601f1061094a57610100808354040283529160200191610975565b820191906000526020600020905b81548152906001019060200180831161095857829003601f168201915b50505050508152602001600582018054600181600116156101000203166002900480601f016020809104026020016040519081016040528092919081815260200182805460018160011615610100020316600290048015610a175780601f106109ec57610100808354040283529160200191610a17565b820191906000526020600020905b8154815290600101906020018083116109fa57829003601f168201915b50505050508152602001600682018054600181600116156101000203166002900480601f016020809104026020016040519081016040528092919081815260200182805460018160011615610100020316600290048015610ab95780601f10610a8e57610100808354040283529160200191610ab9565b820191906000526020600020905b815481529060010190602001808311610a9c57829003601f168201915b50505050508152602001600782018054600181600116156101000203166002900480601f016020809104026020016040519081016040528092919081815260200182805460018160011615610100020316600290048015610b5b5780601f10610b3057610100808354040283529160200191610b5b565b820191906000526020600020905b815481529060010190602001808311610b3e57829003601f168201915b505050505081526020016008820154815260200160098201548152602001600a82018054600181600116156101000203166002900480601f016020809104026020016040519081016040528092919081815260200182805460018160011615610100020316600290048015610c115780601f10610be657610100808354040283529160200191610c11565b820191906000526020600020905b815481529060010190602001808311610bf457829003601f168201915b50505050508152602001600b820160009054906101000a900460ff1615151515815250509050806000015181606001518260800151836020015184604001518560a001518660c001518760e001518861010001518961012001518a61014001518b61016001518a9a508999508898508797508696508595508494508191509c509c509c509c509c509c509c509c509c509c509c509c505091939597999b5091939597999b565b60028181548110610cc457fe5b906000526020600020016000915090505481565b60038181548110610ce557fe5b906000526020600020016000915090505481565b60606002805480602002602001604051908101604052809291908181526020018280548015610d4757602002820191906000526020600020905b815481526020019060010190808311610d33575b5050505050905090565b60006004600081548092919060010191905055905080600160008381526020019081526020016000206000018190555088600160008381526020019081526020016000206001019080519060200190610dab929190611a70565b5087600160008381526020019081526020016000206002019080519060200190610dd6929190611a70565b5089600160008381526020019081526020016000206004019080519060200190610e01929190611a70565b508a600160008381526020019081526020016000206003019080519060200190610e2c929190611a70565b5086600160008381526020019081526020016000206005019080519060200190610e57929190611a70565b5085600160008381526020019081526020016000206006019080519060200190610e82929190611a70565b5084600160008381526020019081526020016000206007019080519060200190610ead929190611a70565b508360016000838152602001908152602001600020600801819055508260016000838152602001908152602001600020600901819055508160016000838152602001908152602001600020600a019080519060200190610f0e929190611a70565b5060038190806001815401808255809150509060018203906000526020600020016000909192909190915055505050505050505050505050565b6001602052806000526040600020600091509050806000015490806001018054600181600116156101000203166002900480601f016020809104026020016040519081016040528092919081815260200182805460018160011615610100020316600290048015610ffa5780601f10610fcf57610100808354040283529160200191610ffa565b820191906000526020600020905b815481529060010190602001808311610fdd57829003601f168201915b505050505090806002018054600181600116156101000203166002900480601f0160208091040260200160405190810160405280929190818152602001828054600181600116156101000203166002900480156110985780601f1061106d57610100808354040283529160200191611098565b820191906000526020600020905b81548152906001019060200180831161107b57829003601f168201915b505050505090806003018054600181600116156101000203166002900480601f0160208091040260200160405190810160405280929190818152602001828054600181600116156101000203166002900480156111365780601f1061110b57610100808354040283529160200191611136565b820191906000526020600020905b81548152906001019060200180831161111957829003601f168201915b505050505090806004018054600181600116156101000203166002900480601f0160208091040260200160405190810160405280929190818152602001828054600181600116156101000203166002900480156111d45780601f106111a9576101008083540402835291602001916111d4565b820191906000526020600020905b8154815290600101906020018083116111b757829003601f168201915b505050505090806005018054600181600116156101000203166002900480601f0160208091040260200160405190810160405280929190818152602001828054600181600116156101000203166002900480156112725780601f1061124757610100808354040283529160200191611272565b820191906000526020600020905b81548152906001019060200180831161125557829003601f168201915b505050505090806006018054600181600116156101000203166002900480601f0160208091040260200160405190810160405280929190818152602001828054600181600116156101000203166002900480156113105780601f106112e557610100808354040283529160200191611310565b820191906000526020600020905b8154815290600101906020018083116112f357829003601f168201915b505050505090806007018054600181600116156101000203166002900480601f0160208091040260200160405190810160405280929190818152602001828054600181600116156101000203166002900480156113ae5780601f10611383576101008083540402835291602001916113ae565b820191906000526020600020905b81548152906001019060200180831161139157829003601f168201915b50505050509080600801549080600901549080600a018054600181600116156101000203166002900480601f0160208091040260200160405190810160405280929190818152602001828054600181600116156101000203166002900480156114585780601f1061142d57610100808354040283529160200191611458565b820191906000526020600020905b81548152906001019060200180831161143b57829003601f168201915b50505050509080600b0160009054906101000a900460ff1690508c565b6000602052806000526040600020600091509050806000015490806001018054600181600116156101000203166002900480601f0160208091040260200160405190810160405280929190818152602001828054600181600116156101000203166002900480156115275780601f106114fc57610100808354040283529160200191611527565b820191906000526020600020905b81548152906001019060200180831161150a57829003601f168201915b505050505090806002018054600181600116156101000203166002900480601f0160208091040260200160405190810160405280929190818152602001828054600181600116156101000203166002900480156115c55780601f1061159a576101008083540402835291602001916115c5565b820191906000526020600020905b8154815290600101906020018083116115a857829003601f168201915b505050505090806003018054600181600116156101000203166002900480601f0160208091040260200160405190810160405280929190818152602001828054600181600116156101000203166002900480156116635780601f1061163857610100808354040283529160200191611663565b820191906000526020600020905b81548152906001019060200180831161164657829003601f168201915b505050505090806004015490806005015490806006018054600181600116156101000203166002900480601f01602080910402602001604051908101604052809291908181526020018280546001816001161561010002031660029004801561170d5780601f106116e25761010080835404028352916020019161170d565b820191906000526020600020905b8154815290600101906020018083116116f057829003601f168201915b505050505090806007015490806008015490806009018054600181600116156101000203166002900480601f0160208091040260200160405190810160405280929190818152602001828054600181600116156101000203166002900480156117b75780601f1061178c576101008083540402835291602001916117b7565b820191906000526020600020905b81548152906001019060200180831161179a57829003601f168201915b505050505090508a565b6060600380548060200260200160405190810160405280929190818152602001828054801561180f57602002820191906000526020600020905b8154815260200190600101908083116117fb575b5050505050905090565b6000600560008154809291906001019190505590508060008083815260200190815260200160002060000181905550896000808381526020019081526020016000206001019080519060200190611871929190611a70565b5088600080838152602001908152602001600020600201908051906020019061189b929190611a70565b508760008083815260200190815260200160002060030190805190602001906118c5929190611a70565b5086600080838152602001908152602001600020600401819055508560008083815260200190815260200160002060050181905550846000808381526020019081526020016000206006019080519060200190611923929190611a70565b5083600080838152602001908152602001600020600701819055508260008083815260200190815260200160002060080181905550816000808381526020019081526020016000206009019080519060200190611981929190611a70565b50600281908060018154018082558091505090600182039060005260206000200160009091929091909150555050505050505050505050565b604051806101400160405280600081526020016060815260200160608152602001606081526020016000815260200160008152602001606081526020016000815260200160008152602001606081525090565b60405180610180016040528060008152602001606081526020016060815260200160608152602001606081526020016060815260200160608152602001606081526020016000815260200160008152602001606081526020016000151581525090565b828054600181600116156101000203166002900490600052602060002090601f016020900481019282601f10611ab157805160ff1916838001178555611adf565b82800160010185558215611adf579182015b82811115611ade578251825591602001919060010190611ac3565b5b509050611aec9190611af0565b5090565b611b1291905b80821115611b0e576000816000905550600101611af6565b5090565b90565b600082601f830112611b2657600080fd5b8135611b39611b3482612361565b612334565b91508082526020830160208301858383011115611b5557600080fd5b611b60838284612403565b50505092915050565b600081359050611b7881612456565b92915050565b6000806000806000806000806000806101408b8d031215611b9e57600080fd5b60008b013567ffffffffffffffff811115611bb857600080fd5b611bc48d828e01611b15565b9a505060208b013567ffffffffffffffff811115611be157600080fd5b611bed8d828e01611b15565b99505060408b013567ffffffffffffffff811115611c0a57600080fd5b611c168d828e01611b15565b98505060608b013567ffffffffffffffff811115611c3357600080fd5b611c3f8d828e01611b15565b97505060808b013567ffffffffffffffff811115611c5c57600080fd5b611c688d828e01611b15565b96505060a08b013567ffffffffffffffff811115611c8557600080fd5b611c918d828e01611b15565b95505060c08b013567ffffffffffffffff811115611cae57600080fd5b611cba8d828e01611b15565b94505060e0611ccb8d828e01611b69565b935050610100611cdd8d828e01611b69565b9250506101208b013567ffffffffffffffff811115611cfb57600080fd5b611d078d828e01611b15565b9150509295989b9194979a5092959850565b60008060008060008060008060006101208a8c031215611d3857600080fd5b60008a013567ffffffffffffffff811115611d5257600080fd5b611d5e8c828d01611b15565b99505060208a013567ffffffffffffffff811115611d7b57600080fd5b611d878c828d01611b15565b98505060408a013567ffffffffffffffff811115611da457600080fd5b611db08c828d01611b15565b9750506060611dc18c828d01611b69565b9650506080611dd28c828d01611b69565b95505060a08a013567ffffffffffffffff811115611def57600080fd5b611dfb8c828d01611b15565b94505060c0611e0c8c828d01611b69565b93505060e0611e1d8c828d01611b69565b9250506101008a013567ffffffffffffffff811115611e3b57600080fd5b611e478c828d01611b15565b9150509295985092959850929598565b600060208284031215611e6957600080fd5b6000611e7784828501611b69565b91505092915050565b6000611e8c8383611f77565b60208301905092915050565b6000611ea38261239d565b611ead81856123cb565b9350611eb88361238d565b8060005b83811015611ee9578151611ed08882611e80565b9750611edb836123be565b925050600181019050611ebc565b5085935050505092915050565b611eff816123ed565b82525050565b6000611f10826123b3565b611f1a81856123dc565b9350611f2a818560208601612412565b611f3381612445565b840191505092915050565b6000611f49826123a8565b611f5381856123dc565b9350611f63818560208601612412565b611f6c81612445565b840191505092915050565b611f80816123f9565b82525050565b611f8f816123f9565b82525050565b60006020820190508181036000830152611faf8184611e98565b905092915050565b6000610140820190508181036000830152611fd2818d611f05565b90508181036020830152611fe6818c611f05565b90508181036040830152611ffa818b611f05565b9050612009606083018a611f86565b6120166080830189611f86565b81810360a08301526120288188611f05565b905061203760c0830187611f86565b61204460e0830186611f86565b612052610100830185611f86565b8181036101208301526120658184611f05565b90509b9a5050505050505050505050565b600060208201905061208b6000830184611f86565b92915050565b6000610180820190506120a7600083018f611f86565b81810360208301526120b9818e611f05565b905081810360408301526120cd818d611f05565b905081810360608301526120e1818c611f05565b905081810360808301526120f5818b611f05565b905081810360a0830152612109818a611f05565b905081810360c083015261211d8189611f05565b905081810360e08301526121318188611f05565b9050612141610100830187611f86565b61214f610120830186611f86565b8181036101408301526121628185611f05565b9050612172610160830184611ef6565b9d9c50505050505050505050505050565b600061018082019050612199600083018f611f86565b81810360208301526121ab818e611f3e565b905081810360408301526121bf818d611f3e565b905081810360608301526121d3818c611f3e565b905081810360808301526121e7818b611f3e565b905081810360a08301526121fb818a611f3e565b905081810360c083015261220f8189611f3e565b905081810360e08301526122238188611f3e565b9050612233610100830187611f86565b612241610120830186611f86565b8181036101408301526122548185611f3e565b9050612264610160830184611ef6565b9d9c50505050505050505050505050565b60006101408201905061228b600083018d611f86565b818103602083015261229d818c611f3e565b905081810360408301526122b1818b611f3e565b905081810360608301526122c5818a611f3e565b90506122d46080830189611f86565b6122e160a0830188611f86565b81810360c08301526122f38187611f3e565b905061230260e0830186611f86565b612310610100830185611f86565b8181036101208301526123238184611f3e565b90509b9a5050505050505050505050565b6000604051905081810181811067ffffffffffffffff8211171561235757600080fd5b8060405250919050565b600067ffffffffffffffff82111561237857600080fd5b601f19601f8301169050602081019050919050565b6000819050602082019050919050565b600081519050919050565b600081519050919050565b600081519050919050565b6000602082019050919050565b600082825260208201905092915050565b600082825260208201905092915050565b60008115159050919050565b6000819050919050565b82818337600083830152505050565b60005b83811015612430578082015181840152602081019050612415565b8381111561243f576000848401525b50505050565b6000601f19601f8301169050919050565b61245f816123f9565b811461246a57600080fd5b5056fea365627a7a7231582010e8c65006d8d66c9d90577e10b7509726e117693143f6f1771af9751b49646c6c6578706572696d656e74616cf564736f6c63430005100040",
  "source": "pragma solidity ^0.5.0;\npragma experimental ABIEncoderV2;\n\ncontract CreateListing {\n\n  \n\tstruct Listing {\n        uint id;                    // id of the listing\n\t    string name;                // name of the listing\n        string addr;                // address of the listing\n        string county;              // county of the listing\n        uint price;                 // price of rent (per month)\n        uint deposit;               // price for deposit\n        string description;         // a description of the listing\n        uint numBed;                // number of bedrooms\n        uint numBath;               // number of bathrooms\n        string landlordId;          // id of the landlord\n        \n\t}\n\n    struct Agreement {\n        uint id;                    // id of the agreement\n        string landlord;            // name of the landlord\n        string landEmail;\n        string tenant;              // name of the tenant\n        string tenantEmail;\n        string addr;               // title of the listing\n                     // address of the listing\n        string start;               // start date of tenancy\n        string end;                 // end date of tenancy\n        uint rent;                  // price of rent (per month)\n        uint deposit;\n        string todayDate;           // date the agreement was created\n        bool signed;                // true if the agreement has been signed by the tenant\n    }\n\n\n\tmapping(uint => Listing) public listings;\t\n    mapping(uint => Agreement) public agreements;\n\t\n    uint[] public listingIndexes;\n    uint[] public agreementIndexes;\n\n    uint agreementCounter;\n\tuint listingCounter;\n\t\n    function addListing(string memory name_form, string memory address_form, string memory county_form, uint price_form, uint deposit_form, string memory description_form, uint numBed_form, uint numBath_form, string memory landlordId_form) public {\n        uint listingId = listingCounter++;\n        listings[listingId].id = listingId;\n        listings[listingId].name = name_form;\n        listings[listingId].addr = address_form;\n        listings[listingId].county = county_form;\n        listings[listingId].price = price_form;\n        listings[listingId].deposit = deposit_form;\n        listings[listingId].description = description_form;\n        listings[listingId].numBed = numBed_form;\n        listings[listingId].numBath = numBath_form;\n        listings[listingId].landlordId = landlordId_form;\n       \n\n       listingIndexes.push(listingId);\n        \n    }\n\n    function addAgreement(string memory tenant_form, string memory tenantEmail_form, string memory landlord_form, string memory landEmail_form,  string memory address_form, string memory start_form, string memory end_form, uint rent_form, uint deposit_form,  string memory date_form) public {\n        uint agreementId = agreementCounter++;\n\n        agreements[agreementId].id = agreementId;\n        agreements[agreementId].landlord = landlord_form;\n        agreements[agreementId].landEmail = landEmail_form;\n        agreements[agreementId].tenantEmail = tenantEmail_form;\n        agreements[agreementId].tenant = tenant_form;\n      \n        agreements[agreementId].addr = address_form;\n        agreements[agreementId].start = start_form;\n        agreements[agreementId].end = end_form;\n        agreements[agreementId].rent = rent_form;\n         agreements[agreementId].deposit = deposit_form;\n        agreements[agreementId].todayDate = date_form;\n\n        agreementIndexes.push(agreementId);\n    }\n\n   function getAgreementIndexes() public returns (uint[] memory) {\n       return agreementIndexes;\n   }\n\t\n    function getAgreement(uint index) public returns (uint, string memory, string memory, string memory, string memory, string memory, string memory, string memory , uint, uint,  string memory, bool) {\n        Agreement memory agree = agreements[index];\n\n        return (agree.id, agree.tenant, agree.tenantEmail, agree.landlord, agree.landEmail,  agree.addr, agree.start, agree.end, agree.rent, agree.deposit,  agree.todayDate, agree.signed);\n    }\n\n\tfunction getListingIndexes() public returns (uint[] memory) {\n\t\treturn listingIndexes;\n\t}\n\t\n\tfunction getListing(uint index) public returns (string memory, string memory, string memory, uint, uint, string memory,uint, uint, uint, string memory) {\n \t\tListing memory house = listings[index];\t\t\n\t\n\t\treturn (house.name, house.addr, house.county, house.price, house.deposit, house.description, house.numBed, house.numBath, house.id, house.landlordId);\n\t}\n\n    function signAgreement(uint index) public {\n        agreements[index].signed = true;\n    }\n\t\n}\t\n",
  "sourcePath": "/Users/emmakenny/FYP-blockchain/blockchain-ek/contracts/CreateListing.sol",
  "compiler": {
    "name": "solc",
    "version": "0.5.16+commit.9c3226ce.Emscripten.clang"
  },
  "schemaVersion": "3.0.23",
  "updatedAt": "2020-03-23T13:30:00.147Z",
  "networkType": "ethereum",
  "devdoc": {
    "methods": {}
  },
  "userdoc": {
    "methods": {}
  }
}